:020000020000FC
:1080000000C00091780005FD6AC0F092000608E10A
:10801000009316060FEF0A950023E9F70091080672
:1080200006FFECC0E0E0F0E0079116910F3F19F475
:108030001F3F09F4E3C053C03091CF0137FDFCCF9F
:108040003BB72BBFF8012091CA0113E21093CA017C
:108050000A01E8952093CA013BBF08953BB72BBFA7
:10806000F8012091CA014093CA013DE930933400E0
:10807000E8952093CA013BBF089520E006D0E9F7B8
:108080000895259102D0E9F708952D9301501040ED
:10809000202F212B08958AE69FE8FC010591149179
:1080A000FC013296A591B491FC013496259134914E
:1080B000422F432B19F0F901E4DF01C0DEDF069601
:1080C0001FE88637910748F3089501E70DBF00E2E6
:1080D0000EBFC4E2DAE20E944B400E942F41F092B0
:1080E000160600910020109101200A3A154511F062
:1080F0000C940000F0920020F092012000E2009326
:108100007800F6CFDD84CC84BB84AA8499848884EB
:108110007F806E805D804C80BB81AA81998188813F
:10812000F0E0EC0FFD1FEF010895DA92CA92BA92C7
:10813000AA929A928A927A926A925A924A92BA939E
:10814000AA939A938A930895BD01D801F90104C0B6
:1081500021912D9341505040242F252BC9F7DB014D
:108160000895AF93BF93D80101900D9241505040B4
:10817000D9F7BF91AF9108954091CA01E22FF32F33
:108180000093CA0104914093CA01089540E04BBF97
:10819000F80158ED54BF20830895169507954A9528
:0E81A000E2F70895000F111F4A95E2F70895C7
:1081F4000C9488450C94B94566CFB90198018B015C
:10820400D2C061E0E6C0B90198018B0149C06FC0DA
:1082140062E770E2260F371F0C94A44068EE70E208
:10822400F9CFF8940AEA15E5E0E0F0E2008311835F
:1082340020917900216009E76AD1FFCF8A93EFEC9E
:10824400F1E0408147FDFDCF012B022B032B00936E
:10825400C4018091CA0108E01AC027E402EA57D198
:1082640029D17894F5D32ED430E02CE010E300E04B
:10827400E5DFFFCF0091CF0107FDFCCF089521E09A
:108284000BEC11E00C94C6408A938091CA010093D0
:10829400CA0121E00BEC11E0F5DF8093CA0193C41D
:1082A40096D0D8012901CA017DD0ECECF1E000811F
:1082B40008600083AC01B05F9D018201ADDFECEC8E
:1082C400F1E00081077F00837FC053D0C801A22F53
:1082D400B091CA0131D04FD09093C1018093C001B5
:1082E400A093C40105E330D0B093CA015EC36FD03C
:1082F400C801D9012A010DC08D0129D045E08C01A6
:108304000E94CF4040D08096909600EE400E0FEF32
:10831400501E042D052979F0082F0F7129F400E26D
:10832400401600E0500640F72D918C01CEDF0196F7
:108334000FEF400EEDCF48C035D00091CF0101FFC3
:1083440002C006E301D008950093CA0198CF11D06A
:10835400D8018091CA010FD00093C1010093C001DC
:108364001D911093C40103950032C0F38093CA0198
:108374001CC30C949F407EDF03E30093CA0100E01A
:108384000093C20108958A93802F0CD000E2809F4D
:1083940000E00093C2011092C1010092C00105E304
:1083A40073DF11C467CF13D0D901CA012801FADFE2
:1083B40008C0F20104910D9301E0400E00E0501E4C
:1083C4000197082F092BA9F7E6E00C948A400C9436
:1083D4009D400E949540229739015A01D62E4801AA
:1083E400512E442404C0DEDF45E28C0138D20A2D2C
:1083F4000B29D9F1CC24D6DF80E8DD2059F0F20135
:1084040005911491088319830F3F1F4F31F0CC2439
:10841400C39403C00FEF088309830A2D0B2989F045
:108424008414950431F42AD0088323D00A2D0B290F
:1084340041F0F20131968E169F0619F41FD009837C
:1084440018D048815981820120E030E00E941C400C
:1084540002E0400E00E0501E8A9579F6C2019A951A
:10846400CC2009F69FDF44E2C0CF2296EEE00C94C4
:10847400824001E0600E00E0701E08950FEFA00E30
:10848400B01E01E0800E00E0901EF301008108950B
:108494000FBF08954FB7F8941095F0E0E02FE0591E
:1084A400FF4F008101230083042FF2CFF1CFBAD014
:1084B4000C94BC4024E001E42AD00DE1F8DF0093E1
:1084C40062000CE1F4DF009363000FB7F894E0E579
:1084D400F0E0108112601083E9DFE1E5F0E0008153
:1084E40001FFFDCF21E000E410E0CCDEE6E5F0E0A2
:1084F4000081097F008300E807870BEB008B008174
:1085040004600083E0E6008101600083089510E0C8
:10851400B9CEE0EFF0E200E0028301E010E0008376
:108524001183089500910C210F770093C3040895DB
:10853400F5D1208D018D0A9529F00A95A1F00A95AF
:10854400B9F01DC0E0ECF0E2228930E072968F01B0
:10855400E1D0E4D1CDD320A131A10217130710F447
:1085640000A311A390C1E0ECF0E222813381EFCFAC
:10857400222329F424E030E004EE10E2E9CFF9C02C
:10858400C0D00F7169F5B8D007FF14C0112329F0CA
:10859400165041F0125041F023C022E030E000EFC9
:1085A40010E206C0C5DF1DC021E030E002EF10E29A
:1085B400B1D014C0155019F0145039F011C004E9A9
:1085C40012E492960D931C9309C0A3DF58960D9163
:1085D4000093F220002311F03BD003C001E001C05E
:1085E40000E0F2C09BD100E000A301A302A303A317
:1085F40004A305A3068907FF03C07AD3012B81F0E6
:1086040000910A21007619F4BBDF002341F40091A4
:108614000A210F71013021F439D0002309F033C14C
:10862400A8C045CF202F30E002E008950C0180E07F
:1086340090E009C0622F680FF801E80FF91F7081FC
:1086440076277083019684179507A4F3C0010895D3
:1086540000E00093EE204FD0009190000093E820BA
:10866400009191000093E920009192000093EA2088
:10867400009193000093EB200091D00101FB16F0D0
:1086840001E001C000E00093EF20FDC03AD0007685
:10869400003279F531D007FF10C0125041F01A951D
:1086A40031F526E030E09E968D0134D01EC0ACEE4C
:1086B400B0E2CBD3E1F009951DC01A9521F0135017
:1086C400B1F419D012C00091EE20002321F003E18F
:1086D40011E4929608C020E430E003E311E21AD0DA
:1086E40008E913E494960D931C9301E003C00FE092
:1086F40065D000E069C00FC010910B210C91569712
:108704000895BA93AA93AAE0B1E200910A210895C8
:1087140004E711E2F5C102D100E006A702E002ABD2
:1087240000E004A305A302A303A30895E4DFE8EE95
:10873400F0E200E004830583309133212091342159
:10874400203001E0300709F416C0213003E030077F
:1087540009F43DC0203004E0300709F44CC0233054
:10876400300719F401E0068308952330364009F4F4
:108774007AC000E00895BA93AA93A0E2B1E200910E
:10878400EF2010913021012311F09AD016C02D91C1
:108794003C919D972030304019F403E00FD002C083
:1087A40025D011F400E009C020E038E0B1DF05EE87
:1087B40014E494960D931C9301E006C000932221C7
:1087C4000AE0009326210895A991B99108950ED045
:1087D40051F0A4D022A533A52030304029F403E081
:1087E40006A70AE002ABC5CF9CD04DC005E311E259
:1087F4006ED00023089528970091CF0107FDFCCF88
:1088040040E220D22CD000E00093EF200EE226D0EC
:10881400088308E023D009830FE220D00A8309E00B
:108824001DD00B830AE01AD00C830BE017D00D8304
:108834000CE014D00E830DE011D00F8348E050E01B
:1088440024E332E18E01F2DE61E048E050E09E0173
:1088540000EF1FE7BEDD01E028960895E2CE20E098
:1088640030E00C942E40E3E3F1E20281002359F45A
:108874000381013118F008E0A1DF7BCF06D000E0CE
:108884004DD004AB05AB01E00895033041F0023054
:1088940031F0043021F0053011F011E001C010E096
:1088A4001093302112E0019FF001E356FF4D6081E7
:1088B400F1810AE111E2E62F48E050E00C94B14066
:1088C40003E00093222102E00093262152CF7B2F64
:1088D4002A2FD8015C91F8010181402F1FD004ABED
:1088E40055AB12961D9130E00C9106A017A020A460
:1088F40031A4001511053205330530F008E006A750
:108904000AE002AB00E007C0041B150B0F5F1F4F0A
:1089140006AB17AB01E0A22FB72F0895E4EFF0E206
:10892400089527DDA4EFB0E2FD0106A917A9012BE4
:1089340039F400E018EF06AB17AB80E098E010C004
:10894400FD0106A917A9202F212B79F1183010F465
:10895400C80102C080E098E0081B190B06AB17ABF6
:10896400AC0124A935A904E711E262A5F3A5E62F19
:10897400099504E711E207C0FD0124A935A92F5F79
:108984003F4F24AB35AB9C010197232BC9F2F8016F
:1089940021918F012F3F81F305E0009322210AEDFD
:1089A40014E4E8EEF0E204831583E4E00C948C40D4
:1089B400B5DF24A905A9009374212093752122E031
:1089C40030E0A6DE60CF03DDA4EFB0E2FD0144A8F1
:1089D4000FE3402280E090E00FC044E08C010E944D
:1089E400D44040E150E09801235D3F4C64E771E2DC
:1089F400060F171F1BDE0196FD0126A937A944E0C7
:108A040089010E94CF408017910738F3A9015524AA
:108A140024E731E2240D351D04A915A99C96ED9196
:108A2400FC919D970995FD0154A255A201E0CCCC7F
:108A34002FCD3DCD0AE107D00093FA040BE103D01A
:108A44000093FB040895F5DF0F3F09F40FE1089547
:108A54000E94A04000E00093600010E41BDD23E0CE
:108A640004E455DD6AD20064008301E000936000F1
:108A7400AFB7F894E7D028E0029FF001EC50FF4D27
:108A8400158303950230C0F3D5DF0091C004009331
:108A9400C00453D20068008300810061008384EF26
:108AA40090E20496E6EC80839183E0EC24D10FEF0E
:108AB4000583E8EC0081016000830A2FB9DFE3E05D
:108AC4000C948D400FB7F89410E41093CA0410E28C
:108AD4001093CA04E1ECF4E0108111601083E9EC16
:108AE400108112601083E8EC108110641083E9ECAB
:108AF400108111601083E8EC10811068108398CF06
:108B04000DDF068F178F20A331A3089560D0009145
:108B1400CB0407FF02C000E827C0F5D1002329F5E4
:108B2400EBEC0CD204FF17C000E104D2F2DC00E04D
:108B34000093C30420E430E010E05AD020E430E095
:108B440010E000E855D004E719E20093FC201093EC
:108B5400FD201DD10AC0008106FF02C000E404C04C
:108B6400008105FF02C000E2E5D11ED018952FD088
:108B740097D101FD02C084D1B1F402E00093CC048A
:108B84000091C50422D0F801008105FF06C01DD064
:108B940020E2F8012693FCD006C000E817D020E2BA
:108BA400F8012693B1D0E1CF8FBF09911991299192
:108BB4003991499159916991799109901990299024
:108BC4003990E991F9918991089500E02BC08A9335
:108BD400FA93EA933A922A921A920A927A936A93AD
:108BE4005A934A933A932A931A930A938FB7089500
:108BF4008A932051304041F02051304039F02052C6
:108C0400304031F080E005C081E003C082E001C063
:108C140083E0DCDF20E0F801218326E02083806408
:108C24008183D1CF68EF70E2202F2F70220F402F65
:108C3400440F08D0001F020F43E00E94D440060FE7
:108C4400171F089500E010E008959D01E8EC76D127
:108C54000F7D008300810F7D008340D102E00593E6
:108C6400A2E0B1E2EFDF0D930C93539600E206937A
:108C740000E406933DD1069300E406931D931D93EF
:108C84001D931C9315971D931C9311AFD90108953F
:108C9400E6D0002331F0033011F0043009F42BD175
:108CA40076D03CDE06811781083050E01040F1F4A4
:108CB40048E024E739E20AE011E2AEDAE8ECF4E055
:108CC4001AD019D08FDC002309F4EDC027DE068901
:108CD40007FF04C013D002E005AF16C009D0012B72
:108CE40009F405C00BD001E005AFFED00895E7C03C
:108CF400048D158D08950081006207CC00E000AF5B
:108D040001AF02AF03AF0895A6D0033011F43ED0F3
:108D14003CC097D080A191A1801B910B282F292BB7
:108D2400D1F486D0E5DF0217130719F006AD00234E
:108D340011F0D7D02AC004A115A120E000301207F9
:108D440091F0F8010995002371F000E0FD0102AFF4
:108D540003AF80A191A1803400E0900720F080E46B
:108D640090E006AF03C001E000933221FD01868745
:108D74009787068D178D22AD33AD020F131F008B1D
:108D8400118B890150D0AAD0B0D00FCEB4D05DCF12
:108D940062D0043011F4FADF45C0FD018681978169
:108DA40062AD73AD20A131A18B01080F191F2017EB
:108DB400310718F4C901861B970BAC0124E739E28B
:108DC400068D178D060F171F27DA3BD02CD0803461
:108DD400904031F431D0448D558D2417350750F02F
:108DE40000A311A3949631D019F00995002391F0B2
:108DF40066D018C020A131A12017310791F49496B0
:108E0400ED91FC91959700E0E030F00719F0099599
:108E1400002311F448D006C014D00AD000E002AFF9
:108E240003AF62D0C2CD080F191F02AF13AF08956C
:108E340003D020AF31AF089520AD31AD200F311FE5
:108E44000895FD0102AD13AD0895ED91FC9100E08C
:108E5400E030F00708950E949F40A4EFB0E2009133
:108E6400312108951DD001FD0AC00AD009F00895EA
:108E7400F6DF013009F43BCF043009F417D008952C
:108E84005FD0B7CC0DD001FD0AC0FADF09F0089518
:108E9400E6DF023009F425C0033009F407D0089551
:108EA4000091CC04089505E000933121E1E0F1E262
:108EB40004E00593E9EFF0E204E0059308951B2F25
:108EC4002A2F2CDD03E0DF01DD960C9300E00687FA
:108ED400078704D00AD0A22FB12F0895E0E0F1E271
:108EE400089504E00093312103D002E0069308952D
:108EF400E8EFF0E20895BA93AA93A6E1B1E2A5DF00
:108F040009F0099561CCEBEC19D002FF08C0F0938D
:108F1400CA040091002106FF0BC0A4DF09C0008130
:108F240001FF07C002E006D00091F82006FDAADF89
:108F3400AACC1FCC0093CA040895E0ECF4E0A6CABE
:108F4400AFDF00FF16CC01E00093CC04D1DF00E8D2
:108F54000693C4DF00E8069301E0ECDFC9DF00E11B
:108F6400069396DE90CCCC08E820000076007220B0
:108F7400768F04000000800000FF400341000400DD
:108F84000005410941030000000A410000040000FB
:108F94000010410000000000000000000075207D6A
:108FA400209520952085208D20952095209520952D
:108FB400209520952095209520952095209520009A
:108FC40009021200010100C0320904000000FF0080
:108FD40000001201000200000040EB03E42F040033
:088FE400000000010403090470
:040000030000800079
:00000001FF
