:1000000046C3000061C300005FC300005DC3000081
:100010005BC3000059C3000057C3000055C3000074
:1000200053C3000051C300004FC300004DC3000084
:100030004BC3000049C3000047C3000045C3000094
:1000400043C3000041C300003FC300003DC30000A4
:100050003BC3000039C300000C942B0E35C30000D5
:1000600033C3000031C300002FC300002DC30000C4
:100070002BC3000029C3000027C3000025C30000D4
:1000800023C3000021C300000C94E80D1DC3000031
:100090001BC3000019C3000017C3000015C30000F4
:1000A00013C3000011C300000FC300000DC3000004
:1000B0000BC3000009C3000007C3000005C3000014
:1000C00003C3000001C30000FFC20000FDC2000026
:1000D000FBC20000F9C20000F7C20000F5C2000038
:1000E000F3C20000F1C200000C94EB16EDC2000058
:1000F000EBC20000E9C20000E7C20000E5C2000058
:10010000E3C20000E1C20000DFC20000DDC2000067
:10011000DBC20000D9C20000D7C20000D5C2000077
:10012000D3C20000D1C20000CFC20000CDC2000087
:10013000CBC20000C9C20000C7C20000C5C2000097
:10014000C3C20000C1C20000BFC200000C94C70EB1
:10015000BBC20000B9C20000B7C20000B5C20000B7
:10016000B3C20000B1C20000AFC20000ADC20000C7
:10017000ABC20000A9C20000A7C20000A5C20000D7
:10018000A3C20000A1C200009FC200009DC20000E7
:100190009BC2000099C2000097C2000095C20000F7
:1001A00093C2000091C200008FC200008DC2000007
:1001B0008BC2000089C2000087C2000085C2000017
:1001C00083C2000081C200007FC200007DC2000027
:1001D0007BC2000079C2000077C2000075C2000037
:1001E00073C2000071C200006FC200006DC2000047
:1001F0006BC200000C949E2767C200000D0A000D20
:100200000A00643130303A4F4B000000000000001B
:1002100000000000000000000000000000000000DE
:10022000000000653130313A4F4B20574954482087
:100230005445585400000000000000000000000079
:10024000000000006E3131303A57414954494E4761
:1002500020464F5220584D4F44454D0000000000AD
:100260000000000000C83230303A554E4B4E4F5718
:100270004E20434F4D4D414E440000000000000011
:10028000000000000000C93230313A494E56414C5E
:10029000494420434F4D4D414E442055534147451D
:1002A00000000000000000CA3230323A494E564188
:1002B0004C494420504152414D45544552000000A4
:1002C000000000000000000056455253494F4E4DBB
:1002D000590000000000000000000000FC11434F26
:1002E0004E4649474D5900000000000000002F1203
:1002F00025120F125549444D59000000000000001E
:100300000000000000005E123512524541444F4E7D
:100310004C594D590000000000000000B312A41217
:1003200055504C4F41444D59000000000000000062
:10033000C91200000000444F574E4C4F41444D59E4
:10034000000000000000CE1200000000524553459E
:10035000544D59000000000000000000D3120000BE
:100360000000555047524144454D590000000000DF
:100370000000DD12000000004D454D53495A454D27
:10038000590000000000000000000000E71255497D
:100390004453495A454D5900000000000000000038
:1003A0000000FF12425554544F4E4D5900000000BA
:1003B0000000000015131F131A1353455454494EDF
:1003C000474D590000000000000000002E132813C4
:1003D000434C4541524D5900000000000000000010
:1003E00038130000000048454C504D5900000000F3
:1003F0000000000000003C1300000000525353496D
:100400004D59000000000000000000000000000046
:100410008713000000000000000000000000000042
:100420000000000000000000444554454354494F7B
:100430004E4D5900000000000000471411142535EE
:1004400075206D560025750025750052414E444FAC
:100450004D4D59002573004368616D656C656F6E85
:100460002D6E65772D312E3000434C4F534544009F
:10047000000000000000000000000000000000007C
:1004800000000000000000000052414E444F4D5F4C
:10049000554944000000000000000000000000007A
:1004A0000000000000000000005549445F4C454634
:1004B000545F494E4352454D454E540000000000E4
:1004C0000000000000000000005549445F52494709
:1004D00048545F494E4352454D454E54000000007C
:1004E0000000000000000000005549445F4C4546F4
:1004F000545F44454352454D454E540000000000B2
:100500000000000000000000005549445F524947C8
:1005100048545F44454352454D454E540000000049
:1005200000000000000000000053574954434843B6
:1005300041524400000000000000000000000000E4
:1005400000000000000000000000434C4F534544F1
:1005500000000000000000000000D51AD61AD71ACB
:10056000D81AD91ADA1AFE0BDD1A00040401014D5B
:10057000465F554C5452414C49474854000000C115
:100580000FF90F250C290C2A0C2B0C770D8B0D4025
:10059000000700024D465F434C41535349435F31CE
:1005A0004B000000C10FF90F7907930797079807D1
:1005B000FE0B050C00040400034D465F434C415301
:1005C0005349435F344B000000C10FF90F86079376
:1005D0000797079807FE0B050C00100400044D4612
:1005E0005F444554454354494F4E00000000C10F3D
:1005F000F90FF406010797078105FE0B050C0010A3
:1006000004001C034C00550046004100200043003C
:10061000440043002000440065006D006F000000AE
:1006200018034400650061006E0020004300610073
:100630006D006500720061000000040309040902F6
:100640003E00020100C03209040000010202010064
:1006500005240010010424020605240600010705F4
:1006600082030800FF09040100020A0000000705D8
:100670000402100005070583021000051201100195
:1006800002000008EB03442001000102DC011124F8
:100690001FBECFEFCDBFDFE2DEBF10E2A0E0B0E2D1
:1006A000EAE2F8E502C005900D92A83BB107D9F740
:1006B00027E2A8EBB0E201C01D92AF35B207E1F727
:1006C0000E94D4180C94132C0C946E103BB78BBF63
:1006D000FB0186913BBF08953BB78BBFFB01879120
:1006E00096913BBF089542E089C041E087C0809366
:1006F000C00188278093C1018093C20147E06ED07A
:10070000CB0108958093C40148E068C08091D00176
:1007100008953BB748E177C03BB74AE174C03BB7A7
:1007200040E271C03BB78BBFCB0142E26CC03BB72C
:100730000B0143E268C0EE27FF2719BEDC0143E24C
:100740004093CA0150E82DE90D901D90209334008C
:10075000E89532965A95C1F7112408953BB76BBFBF
:10076000FA0119BEDC0140E04093CA0150E08791D4
:1007700097918D939D935A95D1F73BBF08953BB7C1
:100780008BBFCB0144E23FC03BB78BBFCB0145E2FF
:100790003AC03BB746E237C03BB78BBFCB014AE21A
:1007A00032C03BB78BBFCB014CE22DC03BB78BBFF8
:1007B000CB014DE228C048E311C049E30FC028ED4A
:1007C0002093340021E02093CC0108952091CF01A3
:1007D00027FDFCCF22272093CA0108954093CA0128
:1007E00028ED31E0209334003093CB016091C401B7
:1007F0007091C5018091C60199270895FC0140932D
:10080000CA0184910895FC014093CA012DE9209307
:100810003400E89511243BBF0895CF93ABEBB0E2D1
:10082000FC911196CC91119712964C91A8EBB0E2E5
:10083000EC9111963C91119712962C915C2F50716E
:100840009F2F917E9527542F507295275E2F5479B4
:100850009527532F53779527522F5A739527592F42
:1008600052955F709527592F569556959527A92F24
:10087000A69550E060E070E0BA01552744275C2B54
:100880004F2B76956795579547959A2791709813B2
:100890006068ABEBB0E2EC9311963C931197129623
:1008A0002C93E8EBF0E2408351836283CF9108956B
:1008B000CF93DF9388EB90E2DC011196EC911197D6
:1008C000CE2FCF70D0E0CA59DF4D2C91A22FA29528
:1008D000AF70B0E0AA59BF4D38892C91232BE29517
:1008E000EF70F0E0EA59FF4D30A1232BDC011296A6
:1008F000EC91AE2FAF70B0E0AA59BF4DD0968C915D
:10090000922F982BE295EF70F0E0EA55FF4D808131
:10091000E92FE82BF0E0EA5BFF4D8081DF91CF917A
:100920000895CF92DF92EF92FF920F931F93CF9390
:10093000DF93EA01FC0131960F2EFBEBEF2EF0E284
:10094000FF2EF02D08EB10E26C0127E0C20ED11C47
:10095000CF010197DC012C91808130E0382B88E0B9
:1009600090E040E04695969520FD406821FD906816
:1009700036952795369527958150A1F7D7014D9348
:100980007D01D8019D938D013296EC15FD0501F78F
:10099000FB01918189819827C2808A81C826D12C48
:1009A000E12CF12C7601DD24CC24D92A9081888198
:1009B0008927C82A93818B818927F82A10E278DF5A
:1009C000082F8C2D817029DFF694E794D794C79473
:1009D000002311F06894F7F8115089F788818C256D
:1009E000888389818D2589838A818E258A838B815D
:1009F0008F258B83DF91CF911F910F91FF90EF9007
:100A0000DF90CF900895CF92DF92EF92FF92CF9335
:100A1000FC018181C280D12CE12CF12C7601DD24F6
:100A2000CC24D82A8081C82A8381F82AC0E240DFFA
:100A30009C2D91708927F1DEF694E794D794C794A2
:100A4000C150A9F7CF91FF90EF90DF90CF9008951C
:100A50001F93CF93DF93D8E0C0E02ADF182F80E008
:100A6000DCDEC6951111C068D150B9F78C2FDF912B
:100A7000CF911F9108951F93CF93DF93D4E0C0E0EF
:100A800017DF182F80E0C9DEC6951111C860D1505C
:100A9000B9F78C2FDF91CF911F910895CF93FC016F
:100AA000CB010197672B59F1A281C081B1814381AC
:100AB0002A2F2D72322F32953F702327322F3695F1
:100AC00036952327322F369550E060E070E0742F82
:100AD0006627552744275B2B4C2B6A2B7695679509
:100AE00057954795232720FD7068C42FB52FA62F53
:100AF000472F0197E8F6C083518362837383CF91B8
:100B000008950F931F93CF93DF9300D000D0CDB7FC
:100B1000DEB78C0167307105A1F42091C22090915D
:100B2000C320F8018081863219F0823509F051C066
:100B3000F8012083918382E08093C42080E190E0DB
:100B40004BC16031710521F06834710509F041C075
:100B5000F8018081833909F03CC044E050E060E056
:100B600070E0CE0101960E94801D9091C120F80195
:100B70008181803219F0803789F029C02981F801FC
:100B800020833A8131839B8192838C8183832327C5
:100B900092278927848368E270E01BC0F8012281D4
:100BA000898128130BC123818A8128130AC12481DA
:100BB0008B81281309C125818C81281308C190835A
:100BC00061E070E0C8011ED188E190E005C160E0FD
:100BD00070E08091C420853009F4E7C0603271056F
:100BE00009F048C0F80180818056823008F0F2C0D8
:100BF00062E070E0C80139D1882309F4EBC081E0DC
:100C0000898390E29A838B8385E48C8364E0CE01B0
:100C100001960E94AB1F2DE931E2F801808191819C
:100C2000A281B381F90180839183A283B3838981F7
:100C30009A81AB81BC8184839583A683B783F801B5
:100C40008081813621F481E08093BE2002C0109221
:100C5000BE2084E08093C420FE013196D8019E011D
:100C60002B5F3F4F81918D93E217F307D9F780E215
:100C700090E0B2C06034710509F09AC0843009F088
:100C80009AC0809120208330F9F020F4813081F0E7
:100C900048F014C0853021F1E8F0863039F1873012
:100CA00059F12FC080E280939C218093050629C0D2
:100CB00080E180939C218093050623C088E0809387
:100CC0009C21809305061DC084E080939C21809325
:100CD000050617C088E080939C218093050611C00B
:100CE00084E080939C21809305060BC082E0809372
:100CF0009C218093050605C081E080939C21809310
:100D0000050688E0F801A5EAB1E201900D928A9506
:100D1000E1F78091BE20811124C06091C02070E075
:100D20006F5F7E4F62957295707F7627607F762722
:100D300040E150E08DE991E20E94FB1D9091C020BE
:100D40009F5F8BEA989F812D112486958695282F89
:100D5000220F820F880F981B9093C02080E090E0B4
:100D60003BC06091BF2070E0695F7E4F62957295D5
:100D7000707F7627607F762740E150E08DE991E231
:100D80000E94FB1D9091BF209F5F8BEA989F812D51
:100D9000112486958695282F220F820F880F981B85
:100DA0009093BF2080E090E017C080E090E014C0F6
:100DB00080E090E011C080E090E00EC060E070E064
:100DC00008CF60E070E005CF60E070E002CF60E047
:100DD00070E0FFCE80E090E02496CDBFDEBFDF91D3
:100DE000CF911F910F91089581E08093C42084E0FA
:100DF00090E08093C2209093C32088E08093C1202C
:100E000008950895CF93DF93DC016115710529F1F1
:100E1000FC01A60FB71FED0123E633E64191942FA5
:100E2000922780E1989FA00111244927642F70E048
:100E3000962F8827660F771F660F771F660F771F1D
:100E400068277927232F33272627372742954F7086
:100E50002427EC17FD0711F702C023E633E62C9395
:100E600011963C93DF91CF910895CF93DF93DC01EE
:100E70006115710529F1FC01A60FB71FED0123E6ED
:100E800033E64191942F922780E1989FA00111248D
:100E90004927642F70E0962F8827660F771F660F0B
:100EA000771F660F771F68277927232F3327262779
:100EB000372742954F702427EC17FD0711F702C022
:100EC00023E633E68C9190E0A90155278417950716
:100ED00059F411964C9150E0232F332781E04217AB
:100EE000530719F080E001C080E08170DF91CF915D
:100EF000089581E08093E12084E090E08093C62013
:100F00009093C72088E08093C520089581E0809366
:100F1000E12082E090E08093C6209093C72088E192
:100F20008093C520089581E08093E120089508957D
:100F30007F928F929F92AF92BF92CF92DF92EF9269
:100F4000FF920F931F93CF93DF93CDB7DEB72E970A
:100F5000CDBFDEBF7C019091E120943009F43BC10C
:100F600020F49230F9F050F07FC0963009F41CC3A1
:100F700008F498C19A3008F44CC3EDC32091C62000
:100F80009091C720D7018C91863219F0823509F0F3
:100F9000E5C3F7012083918382E08093E12080E123
:100FA00090E01BC42091C6209091C720D7018C915E
:100FB000863219F0823509F0D4C3F701208391837A
:100FC00082E08093E12080E190E007C444E050E0BB
:100FD00060E070E0CE0101960E94801D9091C520D6
:100FE000D70111968C91803219F0803789F034C086
:100FF0002981F70120833A8131839B8192838C81FF
:101000008383232792278927848388E290E0E5C39E
:10101000D70112962C91129789812813A6C3139693
:101020002C9113978A812813A3C314962C9114979B
:101030008B812813A0C315962C9115978C812813AA
:101040009DC39C9361E070E0C701DCDE83E0809388
:10105000E12088E190E0C1C380E090E0BEC310923F
:10106000E12080E090E0B9C3F7018081863219F079
:10107000823509F086C384E0D7018C9311961C92C7
:1010800082E08093E12080E190E0A7C3F7018181B5
:10109000811111C062E070E0C701E7DE882329F00A
:1010A0001092E12080E090E098C381E0D7018C931A
:1010B00084E090E092C3F701108284E090E08DC359
:1010C00090EA980F923008F06FC062E070E0C701BC
:1010D000CCDE882309F462C0D70111960C911197D8
:1010E0000C738C91803611F08AE301C080E3B0E18B
:1010F0000B9F80011124080F111D64E0CE0107969B
:101100000E94AB1F44E050E060E070E0CE010B961F
:101110000E94801D46E050E0B801CE0101960E9479
:10112000801D09ED10E28F81F8018083888581831D
:10113000898582838A85838360E470E0C801AEDCA0
:10114000EDEDF0E2D8018C91808311968C9111978E
:10115000818312968C911297828313968C9183834C
:1011600060E270E0CF019ADC84E08093E120FE0130
:101170003796D7019E01255F3F4F81918D93E217EE
:10118000F307D9F7AE01495F5F4FBE01655F7F4F3F
:10119000CE010196C6DB80E290E01FC381E0F7013B
:1011A000808384E090E019C3982F9F77903329F0D3
:1011B000803A19F0805C833040F481E08093E12034
:1011C00084E0D7018C9390E008C381E08093E12014
:1011D00080E090E002C3C70116DC5701B4E0AB0E1B
:1011E000B11C6701E8E0CE0ED11C850131DCD801CD
:1011F0009C918927F80181938F01EC15FD05B1F7CA
:10120000D70114969C9114978091D920981344C0CB
:1012100015969C9115978091DA2098133DC01696EB
:101220009C9116978091DB20981336C017969C915D
:101230008091DC20981330C067010DED10E2B0E81A
:10124000EB0EF11C4801F80171908F0101DC87253C
:10125000D6018D936D01F4012081922E092C929478
:101260009024092C96949694902422DB292D30E02A
:101270002F5F3F4F35952795F1E02F27217082276B
:10128000D7018D937D01CA14DB04E1F685E08093DC
:10129000E12080E290E1A1C281E08093E12080E042
:1012A00090E09BC267015701B4E0AB0EB11C87010F
:1012B000CFDBF80190818927D8018D938D01AA1584
:1012C000BB05B1F7F7018081803309F047C062E0C8
:1012D00070E0C701CADD882309F438C0D701119630
:1012E0006C91B0E16B9FB001112440E150E0C70167
:1012F0000E94801D60E170E0C70184DD8701005815
:101300001F4FE2E1EE0EF11CD601BC90A1DB8B2554
:10131000F60181936F010B2CB294B0240B2CB69480
:10132000B694B024C5DA2B2D30E02F5F3F4F3595B2
:101330002795F1E02F2721708227D8018D938D0109
:10134000CE14DF0409F780E990E147C294DB91E015
:101350008927F701808384E090E03FC2803AF1F46E
:1013600062E070E0C70181DD882381F0D70111962A
:101370008C918093D82086E08093E1207CDB9AE0FA
:101380008927F701808384E090E027C274DB91E035
:101390008927D7018C9384E090E01FC2803CE9F458
:1013A00062E070E0C70161DD882379F0F701818197
:1013B0008093D82088E08093E1205DDB9AE0892744
:1013C000D7018C9384E090E008C255DB91E0892737
:1013D000F701808384E090E000C2813CF1F462E098
:1013E00070E0C70142DD882381F0D70111968C910E
:1013F0008093D82087E08093E1203DDB9AE0892725
:10140000F701808384E090E0E8C135DB91E0892733
:10141000D7018C9384E090E0E0C1823CE9F462E083
:1014200070E0C70122DD882379F0F7018181809384
:10143000D82089E08093E1201EDB9AE08927D7013C
:101440008C9384E090E0C9C116DB91E08927F70115
:10145000808384E090E0C1C1803B39F562E070E0B8
:10146000C70103DD8823C9F08091D12381110DC00C
:10147000D70111966C91B0E16B9FB001112440E14E
:1014800050E088EC90E20E94FB1DF5DA9AE0892793
:10149000F701808384E090E0A0C1EDDA91E0892734
:1014A000D7018C9384E090E098C18056823008F098
:1014B00075C062E070E0C701D8DC882309F466C01B
:1014C000F70101810C738081803611F08AE301C03D
:1014D00080E3F0E10F9F80011124080F111D64E0EB
:1014E000CE0107960E94AB1F44E050E060E070E040
:1014F000CE010B960E94801D46E050E0B801CE015F
:1015000001960E94801D09ED10E28F81D8018C9315
:10151000888511968C931197898512968C931297D2
:101520008A8513968C9360E470E0C801B7DAEDED1C
:10153000F0E2D8018C91808311968C911197818370
:1015400012968C911297828313968C91838360E21A
:1015500070E0CF01A3DAAE01495F5F4FBE01655F66
:101560007F4FCE010196DDD9FE0137969E01255FA2
:101570003F4F8191D6018D936D01E217F307C9F7B3
:1015800084E08093E12080E290E027C174DA91E06A
:101590008927F701808384E090E01FC181E0809378
:1015A000E12080E090E019C187016701F2E1CF0EF0
:1015B000D11C4EDAD8019C918927F80181938F01C3
:1015C000EC15FD05B1F760E170E0C7014EDC882342
:1015D000A9F08091D12381110BC06091D820F0E156
:1015E0006F9FB001112440E150E0C7010E94FB1D34
:1015F00042DA9AE08927D7018C9305C03CDA91E062
:101600008927F701808385E08093E12084E090E0E2
:10161000E4C087016701F6E0CF0ED11C19DAD801CA
:101620009C918927F80181938F01EC15FD05B1F795
:1016300064E070E0C70119DC882309F481C060917F
:10164000D820F0E16F9FB001112440E150E088EC18
:1016500090E20E94801DE8ECF0E220818481809578
:10166000281393C08091D02028138FC0DF01E1811F
:1016700015968C9115978095E81387C08091D1209D
:10168000E81383C012968C91129716969C91169728
:10169000909589137AC09091D220891376C01396C1
:1016A0003C91139717969C911797909539136DC09D
:1016B0009091D320391369C01C964C911C971D96AC
:1016C0009C919095491361C09091D62049135DC0BB
:1016D0009091D7209095491358C05DC0841B950BFD
:1016E000A60BB70B06C0273021F4840F951FA61F49
:1016F000B71FE8ECF0E28083C92EDA2EEB2EFF2430
:10170000C1828D012227332702834B2F552766275D
:1017100077274383B82EB094B482BC2CB094B582A2
:10172000B02EB094B682B42EB094B7828087C186B2
:101730000287438785E08093E12080E090E04DC000
:101740009AD991E08927D7018C9385E08093E12095
:1017500084E090E042C080E090E03FC080E090E014
:101760003CC0833909F07BCC31CC80E090E035C0BF
:1017700080E090E032C080E090E02FC080E090E018
:101780002CC0803509F09CCC81CC75D996E0892796
:10179000F7018083DACFD7019C911196FC911197C4
:1017A00012964C91129750E060E070E0BA01552714
:1017B00044275F2B492B13969C91792B90E0A0E056
:1017C000B0E0DC01992788279E2B822BB32B209138
:1017D000E120283009F087CF81CF2E96CDBFDEBF24
:1017E000DF91CF911F910F91FF90EF90DF90CF90FD
:1017F000BF90AF909F908F907F90089544E050E00D
:1018000060E070E00C94801D0895CF93DF931F92E9
:10181000CDB7DEB7FC013181208123273281232718
:1018200033812327298344E050E060E070E00E9488
:10183000FB1D41E050E064E070E0CE0101960E94A3
:10184000FB1D0F90DF91CF91089581E08093E320FD
:10185000089508950895FF920F931F93CF93DF93F8
:1018600000D000D0CDB7DEB78C018091E320853069
:1018700041F560E170E0C801F8DA8823C9F0809191
:10188000D12381110CC06091E22070E0660F771FB8
:10189000660F771F44E050E0C8010E94FB1D84E002
:1018A0008093E3208AE0F801808384E090E016C111
:1018B00084E08093E32081E0F801808384E090E07D
:1018C0000DC1F8019081963219F0923509F002C1EC
:1018D00084E4F8018083118280E190E0FFC01982E6
:1018E0001A821B821C8288E8898343E050E060E012
:1018F00070E0CE0102960E94801DF8018181803245
:1019000019F0803779F028C02981F80120833A81C5
:1019100031839B8192838C8183832327922789271C
:1019200084831AC0F80192818981981315C093812C
:101930008A81981311C094818B8198130DC0958171
:101940008C81981309C084E0808361E070E0C80155
:1019500059DA88E190E0C2C080E090E0BFC09539DC
:10196000C9F544E050E064E070E0CE0101960E94C9
:10197000801DF8018181803219F0803779F027C00D
:101980002981F80120833A8131839B8192838C8164
:101990008383232792278927848319C0F8019281A2
:1019A0008981981314C093818A81981310C09481FF
:1019B0008B8198130CC095818C81981308C010827C
:1019C00061E070E0C8011EDA88E190E087C080E045
:1019D00090E084C0903341F5F801F18062E070E05E
:1019E000C80143DA8823D1F0FFE0FF1590F06F2D96
:1019F00070E0660F771F660F771F40E150E0C80167
:101A00000E94801D60E170E0C801FCD980E990E08F
:101A100065C0F801108284E090E060C081E0F801C8
:101A2000808384E090E05AC0923A69F5F801F18031
:101A300066E070E0C80119DA8823F9F08EEF8F0DA7
:101A40008E30B0F48091D12381110CC06F2D70E0E5
:101A5000660F771F660F771F44E050E0C8010296BB
:101A60000E94FB1D8AE0F801808384E090E036C08C
:101A7000F801108284E090E031C081E0F8018083B9
:101A800084E090E02BC0903A11F5F801F18062E01B
:101A900070E0C801EAD98823A1F08EEF8F0D8E3057
:101AA00058F4F092E22085E08093E3208AE0F80188
:101AB000808384E090E012C0F801108284E090E01E
:101AC0000DC081E0F801808384E090E007C080E0F1
:101AD00090E004C0933909F042CF01CF2496CDBFE6
:101AE000DEBFDF91CF911F910F91FF900895CF93AB
:101AF000DF93EC0143E050E060E070E00E94801D65
:101B000044E050E064E070E0CE0103960E94801D46
:101B1000DF91CF9108950F931F93CF93DF9300D060
:101B2000CDB7DEB78C01FC0190818181892798E8CF
:101B30008927928189278983948183818927958147
:101B40008927968189278A8343E050E060E070E02E
:101B5000C8010E94FB1D41E050E063E070E0CE014F
:101B600001960E94FB1D44E050E064E070E0C80173
:101B700003960E94FB1D41E050E068E070E0CE015A
:101B800002960E94FB1D0F900F90DF91CF911F9145
:101B90000F910895A0E2B6E082E011968C93119720
:101BA00015968C931597E0E4F8E010A211A28DE24F
:101BB00091E086A397A38FEF9FEF80A791A781E085
:101BC000808398E8938393E097831A968C93089583
:101BD0001F920F920FB60F9211248F939F93EF9342
:101BE000FF938DEA91E28093F0209093F1208DE2B3
:101BF00092E28093EE209093EF201092E9201092D1
:101C0000E8201092E4201092EC201092ED20109227
:101C1000E720E0E4F8E0138286E990E086AB97AB3A
:101C20008AE190E080AF91AFE0E4F9E010A211A268
:101C30008FEF9FEF86A397A389E883838EE080834D
:101C400010922A06FF91EF919F918F910F900FBEF6
:101C50000F901F9018951F920F920FB60F9211249C
:101C60002F938F939F93EF93FF93909128068091EA
:101C7000E820957021E009F020E0880F822B809306
:101C8000E8209091E420992309F46EC0982F977072
:101C90009730B1F5E0E4F8E0108280E1848710929B
:101CA00043098091E620882339F08CEB94E08093FF
:101CB00066099093670906C08CE794E080936609F3
:101CC000909367091092E520E0E4F9E081E08487D1
:101CD00083E086838091EC209091ED20877061F005
:101CE0009091E9208F5F96958F5F8930E1F7E091C1
:101CF000F020F091F120908381E08093F22034C0B5
:101D0000982F9C7089F182FB882780F991E08927C0
:101D10008093E6209091E720911124C02091E92042
:101D20002695811180E8282B2093E9208091EC20D2
:101D30009091ED2001968093EC209093ED20877098
:101D40009927892B89F4E091F020F091F120CF01BF
:101D500001968093F0209093F120208381E080937E
:101D6000E72002C01092E7209091E42081E08927CB
:101D70008093E42088E880934308FF91EF919F913E
:101D80008F912F910F900FBE0F901F9018951F925B
:101D90000F920FB60F9211242F933F938F939F931F
:101DA000EF93FF938091E520853009F454C068F4E7
:101DB000823069F128F48823D1F08130F9F0D6C05F
:101DC000833061F18430C1F1D1C0883009F4B7C0EB
:101DD00038F4863009F46EC0873009F47DC0C6C07F
:101DE000893009F4B3C08A3009F4B7C0BFC08FE7A7
:101DF00090E08093660990936709B8C08FE390E004
:101E000080936609909367098EE08093000880E4D0
:101E10008093450683E08093E520A8C080E480930A
:101E2000460684E08093E520E091F020F091F120D7
:101E300080818093E9209AC08091E92080FF04C0CE
:101E400080E48093450603C080E48093460685E0E5
:101E50008093E5208BC08091E92080FF04C090E44E
:101E60009093460603C090E4909345068695809330
:101E7000E9208091EA209091EB2001968093EA205E
:101E80009093EB209C0127703327232B21F486E0CD
:101E90008093E5206BC02091EC203091ED208217DB
:101EA000930721F488E08093E52060C084E080936C
:101EB000E5205CC0E091EE20F091EF208081882346
:101EC00021F080E48093450603C080E480934606B9
:101ED00087E08093E5204AC0E091EE20F091EF206A
:101EE0008081882321F080E48093460603C080E44B
:101EF000809345062091EA203091EB208091EC20E0
:101F00009091ED202817390721F488E08093E5208F
:101F10002DC03196E093EE20F093EF20E091F02079
:101F2000F091F120CF0101968093F0209093F12061
:101F300081818093E92084E08093E52017C080E4CC
:101F40008093460689E08093E52010C080E480936A
:101F500046068AE08093E52009C0E0E4F9E01082BB
:101F600016821092000881E08093F320FF91EF9198
:101F70009F918F913F912F910F900FBE0F901F90C7
:101F80001895CF93DF93E0E4F6E084E08283128A31
:101F9000C0E8D1E082E68E83A0E2B6E085E012964A
:101FA0008C93129781E050968C93509782E05296D2
:101FB0008C9352971A961C921A9783E019968C93D9
:101FC00098E598839AE5998390E491839683818339
:101FD0008683E0E0F8E08FE090E086A397A388E0B6
:101FE00090E082A793A783E28183D4DDDF91CF9134
:101FF00008958091F220882309F468C01092F2209D
:10200000E0E2F6E082E0818386836091EC207091CB
:10201000ED2061157105A9F1E091C823F091C92364
:102020008DEA91E2099594FD0BC0AC015695479558
:1020300056954795569547954115510519F427C072
:102040009F7E25C060E0E62FF0E0E355FE4D208145
:10205000022E22952025022E269526952025E05831
:10206000FF4F30E02F5F3F4F3595279571E02727D1
:10207000217020836F5F262F30E02417350718F377
:1020800006C0E091C423F091C52309951AC00097BA
:10209000C1F08093EC209093ED201092EA201092F2
:1020A000EB208DEA91E28093F0209093F1208DE275
:1020B00092E28093EE209093EF2081E08093E520E0
:1020C00005C0E0E4F9E01082168264DD8091F3201F
:1020D000882319F01092F3205DCD08951F920F927E
:1020E0000FB60F921124FFCF8091780083FF0AC0B2
:1020F00088E08093780088ED84BF81E08093800041
:10210000FD95FEC0E0E5F0E08081866080838181FE
:1021100081FFFDCFE0E5F0E0818182FFFDCF1092ED
:10212000560081E08093600098ED94BFE0E4F0E019
:102130008083A0E0BAE023ED30E396962D933C93A4
:10214000979796E09C93838380930004E0ECF1E002
:10215000848588608487089588ED84BF81E08093BA
:102160007900089588ED84BF8BE180938000089505
:10217000E0E5F0E08BEC8283808188608083818160
:1021800083FFFDCFE0E5F0E084EC85838081806112
:102190008083818184FFFDCF0895E0E4F0E08481B5
:1021A0008E7F8483E0E5F0E080818F7E8083808174
:1021B000877F8083089587E08093A20078940895B4
:1021C000AF92BF92CF92DF92EF92FF920F931F9345
:1021D000CF939FEB980F9A3178F09FE9980F9A313F
:1021E00078F090ED980F9A3060F08F3551F0982F7D
:1021F0009D7F9D33D1F405C09FE9980F9A3108F473
:1022000080522091F4203091F5202F3F310508F0C5
:10221000E7C0A9014F5F5F4F4093F4205093F52032
:10222000F901E355FD4D8083DBC08D3009F0C4C05A
:10223000E091F420F091F520E355FD4D10821092CD
:10224000F4201092F5208091AD22882309F471C00A
:102250008D7F8D3309F470C0EEEAF2E25F01C19127
:10226000CC2321F0CF3311F0CD33C1F7F50110822B
:102270000F2EF8ECEF2EF2E0FF2EF02D00E010E034
:10228000B7018DEA92E20E94CF28892B09F045C060
:102290001092AD22CF33A9F486E1809F9001819FF7
:1022A000300D112424523D4FF901459154914115AF
:1022B000510509F444C08DEA92E2FA010995C1E0A2
:1022C00049C0CD33A1F486E1809F9001819F300DFC
:1022D000112426523D4FF901459154914115510564
:1022E00089F1C5010196FA010995C1E033C0C11118
:1022F0002CC086E1809F9001819F300D11242852CF
:102300003D4FF901459154914115510509F18DEA6F
:1023100092E2FA010995C1E01DC00F5F1F4FF6E17F
:10232000EF0EF11C0131110509F0AACF88ECC0E0D5
:1023300011C088ECC0E00EC088ECC0E00BC089EC96
:10234000C1E008C089ECC1E005C089ECC1E002C071
:1023500089ECC1E0E2E0F2E0E4918E1749F0E3E2BB
:10236000F2E021E030E0A901949189130CC002C091
:1023700040E050E021E2249FC001259F900D1124F0
:102380008D5F9D4F08C02F5F3F4FB19626303105BE
:1023900051F780E090E0A1D28FEF91E09ED2CC2364
:1023A000F9F08091AD228823D9F08DEA92E28FD2A4
:1023B0008CEF91E092D214C0883061F48091F420C7
:1023C0009091F520009761F001978093F42090930D
:1023D000F52006C08B3121F41092F4201092F520E4
:1023E00081E0CF911F910F91FF90EF90DF90CF9000
:1023F000BF90AF900895089527E534E03F932F9361
:1024000021E02F931F929F938F930E94F7280F90A4
:102410000F900F900F900F900F9085E608952EEA81
:1024200033E23F932F9324E534E03F932F9321E051
:102430002F931F929F938F930E94F7288DB79EB77B
:1024400008968DBF9EBF85E608950E94031B8823D2
:1024500021F00E94CE1F84E608958AEC089560E082
:1024600071E00E942C1B85E60895EF92FF920F9376
:102470001F93CF93DF93CDB7DEB7A097CDBFDEBF5D
:102480007C01EDEAF3E203A110E0058CF68DE02D6E
:10249000CE01019609959801AE014F5F5F4F60E054
:1024A00071E0C701DBD785E6A096CDBFDEBFDF9127
:1024B000CF911F910F91FF90EF900895EF92FF92AF
:1024C0000F931F93CF93DF93CDB7DEB7A097CDBF08
:1024D000DEBF8C01E090D023F12C6BE474E00E940D
:1024E000CF28892BA1F4E114F104D1F010E00E946F
:1024F000A81FE1E0F0E0EC0FFD1FE10FF11D80836C
:102500001F5F812F90E08E159F0588F309C0A801F9
:1025100060E270E0CE010196EED78E159F0549F47A
:10252000E091CC23F091CD23CE010196099584E66C
:1025300001C08AECA096CDBFDEBFDF91CF911F9185
:102540000F91FF90EF9008952091D123222321F045
:1025500021E3FC01208303C020E3FC012083FC0174
:10256000118285E60895FC01218121110EC0808130
:10257000813329F481E08093D12384E60895803368
:1025800031F41092D12384E608958AEC08958AEC00
:1025900008958DE49FE120D28EE6089589E79FE1BA
:1025A00033D28EE60895E0ECF4E081818E7F818362
:1025B0000E942C27D1DD84E60895E0ECF4E08181CF
:1025C0008E7F81830E942C27CDDD84E60895EDEA7D
:1025D000F3E222A12F9321A12F9328E434E03F932B
:1025E0002F9321E02F931F929F938F930E94F728A0
:1025F0008DB79EB708968DBF9EBF85E60895209142
:10260000D0231F922F9325E434E03F932F9321E0B2
:102610002F931F929F938F930E94F7288DB79EB799
:1026200008968DBF9EBF85E6089560E071E005D5F0
:1026300085E6089560E071E031D585E608953ED5E0
:10264000882321F00E94CE1F84E608958AEC089525
:1026500060E071E00E94282085E608950E94352000
:10266000882321F00E94CE1F84E608958AEC089505
:102670000E94FB1E84E60895BF92CF92DF92EF92F4
:10268000FF920F931F93CF93DF93EC010FEF10E0B6
:102690000F2EF8ECCF2EF2E0DF2EF02D0F2EFCE205
:1026A000BF2EF02D17C02196DE0111978C938FEF6E
:1026B000E81AF80A01501109F7018491882319F0EA
:1026C0000032110581F7B88201501109F6E1CF0EF1
:1026D000D11C21967601B60186EB90E20E94CF28AC
:1026E000892B41F0F6018491882369F301321105A9
:1026F000D0F6E9CF2197188285E6DF91CF911F911F
:102700000F91FF90EF90DF90CF90BF900895CF93FF
:10271000DF93C82FD92FE0E0F2E020A1206820A3AA
:1027200023A120FFFDCFE0E0F2E081E083A3A089B8
:10273000B189AE5BB10912F4A0E0B0E029E637E55B
:102740004BE050E00E946B28AA27BB279F938F93F2
:102750008EE394E09F938F9381E08F931F92DF939A
:10276000CF930E94F7288DB79EB708968DBF9EBF66
:1027700085E6DF91CF910895AF92BF92CF92DF921D
:10278000EF92FF920F931F93CF93DF93CDB7DEB7F6
:10279000C351D140CDBFDEBFA82EB92E8B016A0137
:1027A000FE01319683E191E0DF019C011D922150F1
:1027B0003040E1F76A2D7B2DCF010E94E7281C14E1
:1027C0001D0404F5C601B8010E941D289E012F5F5B
:1027D0003F4FAA2DBB2DA9014C0D5D1DF901209580
:1027E0003095020F131F0C0D1D1DC801861B970B82
:1027F000BC012191CB018E0F9F1F82278D93E4177F
:10280000F507B9F7CD5EDE4FCDBFDEBFDF91CF91CB
:102810001F910F91FF90EF90DF90CF90BF90AF90FE
:102820000895EF92FF920F931F93CF93DF937C0154
:1028300040E150E060E070E00E94801D40EC50E01C
:1028400060E170E1C70140960E94801D60ED70E07C
:10285000C7010E94020740ED50E069EB71EEC7012D
:102860008BDFE70187010E521F4F699185E090E2EF
:102870000E94AF20C017D107C1F7F701108284E68C
:10288000DF91CF911F910F91FF90EF900895CF931B
:10289000DF93CDB7DEB7C85CD109CDBFDEBF48EC52
:1028A00050E06FEF70E0CE0101960E94F02840ECFE
:1028B00050E060E170E1CE0101960E94FB1D84E6CC
:1028C000C853DF4FCDBFDEBFDF91CF910895BC016C
:1028D00085E090E20C9467200895CF93DF93EC019C
:1028E0002196FC016491662349F085E090E20E9404
:1028F000AF20FE01649121966111F7CFDF91CF9156
:102900000895AB01BC0185E090E20C948C20089501
:1029100080E2809362060895CF93DF9385E090E292
:102920000E9425210E946F2385E090E20E943F21B2
:10293000EC0199232CF07BD0811102C08C2F40DC5C
:10294000DF91CF9108958091F620813089F028F0B1
:102950008230E1F0833029F130C08091680685FF34
:102960002CC084E18093042081E08093F62025C070
:102970008091042081508093042081111EC0F8DBD7
:102980000E94672782E08093F62017C08091680636
:1029900085FD13C084E18093042083E08093F620BA
:1029A0000CC080910420815080930420811105C0C7
:1029B0000E942C27F2DB1092F620CAD11CCD08957C
:1029C0000895089585E090E20C944520089585E0EF
:1029D00090E20C94A721089521E0209304212093F4
:1029E000032124E12093002125E02093FF20109271
:1029F000F9201092FA201092FB201092FC20809374
:102A0000F7209093F820089527E02093042124E6EE
:102A10002093FF201092F9201092FA201092FB20B0
:102A20001092FC208093F7209093F8200895CF9384
:102A300090910421953009F452C030F4933079F12B
:102A4000A8F5913068F47AC1973009F4DAC008F437
:102A50005EC0983009F4DAC0993009F46BC16EC1D8
:102A6000813059F41092FD201092FE201092012125
:102A700083E080930421C1E068C1843049F466E0BA
:102A800085E090E20E94AF2010920421C1E05DC178
:102A9000883109F055C110920421C1E056C18093DC
:102AA000022184E080930421C1E04FC190E0409175
:102AB00002212FEF30E0241B31098217930729F4FC
:102AC00085E080930421C1E040C165E185E090E2AA
:102AD0000E94AF2082E080930421C1E036C12091A2
:102AE000FD203091FE20A9014F5F5F4F4093FD20F4
:102AF0005093FE20F901E355FD4D80834038510588
:102B000009F020C186E080930421C1E01EC120911C
:102B100002219091032129135AC0EDEAF2E24DE21D
:102B200053E290E02191920FE417F507D9F789134A
:102B300044C04091F9205091FA206091FB2070919F
:102B4000FC20E091F720F091F82020E830E08DEAB9
:102B500092E20995C82F882311F1809103218F5F9C
:102B6000809303218091F9209091FA20A091FB207D
:102B7000B091FC2080589F4FAF4FBF4F8093F920FA
:102B80009093FA20A093FB20B093FC2066E085E0B0
:102B900090E20E94AF2082E080930421D6C068E1D9
:102BA00085E090E20E94AF2068E185E090E20E941B
:102BB000AF2010920421C1E0C8C065E185E090E239
:102BC0000E94AF2082E080930421C1E0BEC030E0CB
:102BD000892F90E001972817390751F466E085E0C6
:102BE00090E20E94AF2082E080930421C1E0ADC05A
:102BF00068E185E090E20E94AF2010920421C1E0DC
:102C0000A4C0853119F4109203210EC0883149F413
:102C100066E085E090E20E94AF2010920421C1E0BE
:102C200094C0863009F05DC0809103218F5F80934E
:102C300003214091F9205091FA206091FB2070917E
:102C4000FC20E091F720F091F82020E830E08DEAB8
:102C500092E20995C82F8823D1F161E085E090E2E6
:102C60000E94AF206091032185E090E20E94AF2096
:102C700060910321609585E090E20E94AF2060E8BA
:102C800070E08DEA92E23DDEEDEAF2E22DE233E21F
:102C900060E08191680FE217F307D9F785E090E2D1
:102CA0000E94AF208091F9209091FA20A091FB2002
:102CB000B091FC2080589F4FAF4FBF4F8093F920B9
:102CC0009093FA20A093FB20B093FC203EC064E0D8
:102CD00085E090E20E94AF2089E080930421C1E06A
:102CE00034C0853189F561E085E090E20E94AF2033
:102CF0006091032185E090E20E94AF206091032162
:102D0000609585E090E20E94AF2060E870E08DEA77
:102D100092E2F7DDEDEAF2E22DE233E260E081914A
:102D2000680FE217F307D9F785E090E20E94AF2021
:102D3000C1E00BC010920421C1E007C0C0E005C093
:102D4000C1E003C0C1E001C0C1E08C2FCF91089564
:102D500080910421813019F08730E9F00895809145
:102D6000FF209FEF980F9093FF2081111EC080914C
:102D700000219FEF980F90930021882331F065E1A7
:102D800085E090E20E94AF2002C01092042185E00D
:102D90008093FF2008958091FF209FEF980F9093DC
:102DA000FF20811102C0109204210895E5E0F1E2B4
:102DB000A281B381AB5FBE4D16968C9382819381C5
:102DC00001968F77992782839383808191810196E1
:102DD0008083918308951F920F920FB60F92112452
:102DE0002F933F934F935F936F937F938F939F9313
:102DF000AF93BF93EF93FF938091A00AD7DFFF912A
:102E0000EF91BF91AF919F918F917F916F915F9162
:102E10004F913F912F910F900FBE0F901F901895DB
:102E2000E0E0F6E080E4828388E1868B0895EF920B
:102E3000FF920F931F93CF93DF93CDB7DEB7A09789
:102E4000CDBFDEBF80910806809590918B21982799
:102E500080938B218074892309F4E5C0E0912120BF
:102E6000F09122208081813011F58091D023882338
:102E7000B1F010E00F2EFDEAEF2EF3E2FF2EF02D61
:102E80000E94A81FE1E0F0E0EC0FFD1FE10FF11D33
:102E900080831F5FD70193968C91181788F3E09178
:102EA000CC23F091CD23CE0101960995BCC0823090
:102EB00051F50DEA13E2D8015D96ED91FC915E9714
:102EC000CE0101960995F80123A12223A1F0AE01BC
:102ED0004F5F5F4FFA0191E0992341F0DF0180815C
:102EE00091E08F3F09F090E08F5F8C9331968E2FA9
:102EF000841B821788F3E091CC23F091CD23CE017F
:102F00000196099590C0833079F50DEA13E2D80156
:102F10005D96ED91FC915E97CE0101960995F801C1
:102F200083A141E017C04423A9F0282F30E0E1E05D
:102F3000F0E0EC0FFD1FE20FF31F908141E09F3F97
:102F400009F040E0E1E0F0E0EC0FFD1FE20FF31FBD
:102F50009F5F9083815038F7E091CC23F091CD238F
:102F6000CE01019609955FC0843049F50DEA13E260
:102F7000D8015D96ED91FC915E97CE010196099581
:102F8000F80123A1222399F0AE014F5F5F4FFA01B0
:102F900091E0992339F0DF01808191E0811190E087
:102FA00081508C9331968E2F841B821790F3E09181
:102FB000CC23F091CD23CE010196099534C0853004
:102FC00071F50DEA13E2D8015D96ED91FC915E97E3
:102FD000CE0101960995F80183A141E016C0442372
:102FE000A1F0282F30E0E1E0F0E0EC0FFD1FE20F50
:102FF000F31F908141E0911140E0E1E0F0E0EC0F3F
:10300000FD1FE20FF31F91509083815040F7E09134
:10301000CC23F091CD23CE010196099504C08630D2
:1030200011F4DFD7BBD7A096CDBFDEBFDF91CF9124
:103030001F910F91FF90EF9008951F93CF93DF930F
:10304000DC016150710949E654E090E01CE29A010C
:10305000FA018491882391F06132710578F011961C
:10306000ED01219788832F5F3F4F61507109F9016E
:103070008491882319F06032710589F7963020F425
:103080001C936150710911969F5F405E5F4F9730AE
:10309000F1F61C92DF91CF911F910895AB01E09161
:1030A0002120F0912220208160E2269F90011124AE
:1030B000B90167597B4F0C94D8280895EF92FF927D
:1030C0001F93CF93DF937C01C9E6D4E010E0BE01EB
:1030D000C7010E94CF28892B39F4E0912120F0917B
:1030E0002220108381E005C01F5FA096173079F77A
:1030F00080E0DF91CF911F91FF90EF90089514161B
:10310000150674F4480F591FFC01681B790B2081C8
:10311000CB018E0F9F1F82278193E417F507B9F724
:103120000895E0E0F6E080E2868380E1868398E01F
:10313000968384E08683E0E8F6E09683868382E0E7
:10314000868381E08683809120208330C9F020F43B
:10315000813071F048F010C08530D1F0A8F0863091
:10316000D9F08730E9F0089580E28093050608954C
:1031700080E180930506089588E080930506089510
:1031800084E080930506089588E08093850608957D
:1031900084E080938506089582E0809385060895F3
:1031A00081E08093850608957F928F929F92AF92DF
:1031B000BF92CF92DF92EF92FF920F931F93CF9324
:1031C000DF93CDB7DEB7E697CDBFDEBF0E947410A8
:1031D000B1D2EFECF1E080818823ECF381E290E062
:1031E0000E94932B853539F0D9D665E581E290E0D0
:1031F0000E94A32B4DC045E150E060E070E8CE0195
:10320000019613D363E170E0CE0101960E94350769
:10321000882351F083E1FE013196A0E2B0E20190F3
:103220000D928A95E1F734C083E1E3E3F0E2DE0139
:10323000949601900D928A95E1F783E1FE01B49690
:10324000A0E2B0E201900D928A95E1F7A7D6A0E046
:10325000B6E050E240E168E074E0E0E8F6E032E039
:1032600021E015965C93159715964C931597159636
:103270006C93159715967C931597658375833583A5
:1032800025838FE39CE90197F1F700C00000E9CFA7
:10329000E0E0F6E080E381838CE381838FE080933C
:1032A0008106AAD135DB53D6BBDDE0E0F2E081E058
:1032B0008083118292E0928393E0948380A388E3D9
:1032C00081A30E94DB1004E911E20F2EF0EFCF2E54
:1032D000FFE7DF2EE12CF12CF02DC701B6010E9493
:1032E0006603D8018D938D01BFEFCB1ADB0AEB0A81
:1032F000FB0AE8EFCE16EFE7DE06E104F10469F71A
:1033000048E050E064E372E184E991E2F8DE8EE2A5
:103310000E9473030CE811E2D8018C9388E00E94AC
:103320007303F80181838FE20E947303D801129620
:103330008C9389E00E947303F80183838AE00E94E2
:103340007303D80114968C938BE00E947303F801E9
:1033500085838CE00E947303D80116968C938DE0D0
:103360000E947303F8018783DCDE0F2EF4E9EF2E51
:10337000F1E2FF2EF02D0F2EFDEACF2EF3E2DF2E2D
:10338000F02D0F2EA12CFAE0BF2EF02D7724739490
:103390000F2E812CF6E09F2EF02D1DC0BDDAD60138
:1033A0005396ED91FC9154970995D6015996ED915C
:1033B000FC915A970995F501848580FF0CC07486AD
:1033C000E4D5C1DA34DDADDE80919C21D4011696BE
:1033D0008C9310929C21F7019081D8018C919813C5
:1033E0002AC0918111968C911197981324C09281D3
:1033F00012968C91129798131EC0938113968C91FC
:103400001397981318C0948114968C91149798135D
:1034100012C0958115968C91159798130CC09681C2
:1034200016968C911697981306C0978117968C91D3
:10343000981709F4B3CF80E090E0E696CDBFDEBFE9
:10344000DF91CF911F910F91FF90EF90DF90CF9080
:10345000BF90AF909F908F907F900895EF92FF92D2
:103460000F931F93CF93DF93DC01615071092115F6
:10347000310599F16230710598F1FA01EC0121965C
:1034800021503109420F531F00E010E09081392F85
:1034900032953F70E32EF12C8AE0E816F10414F423
:1034A000305D01C0395C3C939F70E92EF12C8AE0BD
:1034B000E816F10414F4905D01C0995C98831296AB
:1034C000625071090E5F1F4FE417F50759F03196EE
:1034D000229662307105D0F605C000E010E002C00F
:1034E00000E010E01C92C801DF91CF911F910F9175
:1034F000FF90EF900895CF93DF93EC01FA01908154
:10350000992309F44CC021812223C9F16115710569
:1035100089F1DA01139640E050E080ED890F8A309E
:1035200020F08FEB890F863068F530ED320F3A309E
:1035300020F08FEB820F863040F5913418F492958D
:10354000907F03C09295907F9057213410F4232FE1
:1035500001C02753922B99934F5F5F4F3296908112
:10356000992351F02C912223B1F01296641775071C
:10357000A1F611C040E050E0842F952F13C080E0E9
:1035800090E010C080E090E00DC080E090E00AC0C4
:1035900080E090E007C081818111EECFF9CF40E05B
:1035A00050E0EACFDF91CF910895089508950895EE
:1035B0000895089580E090E008950895CF93DF93F3
:1035C000E0912120F0912220818395E2899FB00132
:1035D0001124675B7A4F45E250E08DEA93E20E9446
:1035E000C628CDEAD3E2ED89FE890995E989FA89F1
:1035F0000995DF91CF910895E0912120F09122204B
:103600008181DCCF08951F93CF93DF936AE475E047
:1036100010E0AB01FB012491A82FB92F09C03D9107
:10362000332381F023130EC04F5F5F4FFA012491C3
:10363000ED012111F4CF2881211104C0812FBEDFBB
:1036400081E006C01F5F6B5D7F4F153011F780E092
:10365000DF91CF911F9108951F93CF93DF93DC01EA
:10366000615071094AE455E090E01CE29A01FA01C8
:103670008491882391F06131710578F01196ED0104
:10368000219788832F5F3F4F61507109F901849121
:10369000882319F06031710589F7943020F41C9368
:1036A0006150710911969F5F4B5D5F4F9530F1F648
:1036B0001C92DF91CF911F910895292F332722303B
:1036C000310559F02330310569F02130310529F5F4
:1036D00082E190E02CE736E029C08EE390E02EE313
:1036E00036E024C099278130910559F08230910548
:1036F00071F0892BB9F4EAE3F6E0849190E09F0140
:1037000015C0E0E2F6E0849190E09F010FC0E2E096
:10371000F6E0849190E09F0109C080E090E020E015
:1037200030E004C080E090E020E030E0FA01208347
:1037300031830895CF93DF9300D000D0CDB7DEB7AB
:10374000A0E6B6E080E115968C93159792E0169668
:103750009C93169798E015969C9315979AE111966D
:103760009C931197E0EAF9E01682178290EC95831A
:1037700098E1948316968C9387ED8083818186FFF0
:10378000FDCFE0EAF9E080E48183808110828181CD
:1037900086FFFDCFE0EAF9E080E48183808190E15B
:1037A0009093650680FD39C08DE389838AE28A8320
:1037B00080E88B8386EA8C83A0E6B6E020E137EDD3
:1037C00090E416962C9316973083818186FFFDCF67
:1037D000918380811082818186FFFDCF91838081DA
:1037E00015962C931597882364F780E180936606DD
:1037F000DE0111969E012B5F3F4FE0EAF9E090E475
:103800008D918083818186FFFDCF91838081A21776
:10381000B307B1F780E18093650681E090E02496DC
:10382000CDBFDEBFDF91CF910895CF92DF92EF92AF
:10383000FF921F93CF93DF93EC016B01E12CF12CEE
:10384000A0E6B6E030E1E0EAF9E017ED20E41696F4
:103850003C9316971083918196FFFDCF2183808141
:103860001082918196FFFDCF2183808115963C9334
:103870001597882364F780E18093660683E0809340
:10388000A009E0EAF9E0818186FFFDCFE0EAF9E0F6
:1038900080E481838081C701AA27BB27808391812F
:1038A00096FFFDCFE0EAF9E080E481838081CD2CB2
:1038B000DE2CEF2CFF24C082918196FFFDCFE0EA41
:1038C000F9E080E4818380816083918196FFFDCF60
:1038D000E0EAF9E080E4818380814115510571F0CF
:1038E000DE014C0F5D1F80E41082918196FFFDCFB9
:1038F000818390819D93A417B507B1F780E18093F0
:103900006506DF91CF911F91FF90EF90DF90CF90F0
:1039100008952F923F924F925F926F927F928F9273
:103920009F92AF92BF92CF92DF92EF92FF920F934E
:103930001F93CF93DF9300D000D0CDB7DEB77C01CB
:103940008A014B01A12CB12C452B09F4C3C0C12C19
:10395000DD24D3946894222424F8822DE0EAF9E04F
:1039600037ED20E4332EE982FA82492C5A2C6B2C55
:103970007724482DB601681971090617170708F44E
:10398000B801809366063082918196FFFDCF218336
:1039900090811082918196FFFDCF21839081809349
:1039A0006506992374F72092660693E590839181CA
:1039B00096FFFDCF218390815082918196FFFDCFAC
:1039C000218390814082918196FFFDCF2183908158
:1039D0001082918196FFFDCF218390812092650610
:1039E000809366063083918196FFFDCF218390817D
:1039F0001082918196FFFDCF21839081809365068F
:103A0000992374F720926606A4E8A083918196FF1B
:103A1000FDCF218390811082918196FFFDCF21837C
:103A200090811082918196FFFDCF21839081408308
:103A3000918196FFFDCF218390816115710579F009
:103A4000A981BA81A701460F571F9D91908391814B
:103A500096FFFDCF21839081A417B507B1F720927F
:103A60006506809366063083918196FFFDCF2183A2
:103A700090811082918196FFFDCF21839081809368
:103A80006506992374F720926606B3E8B0839181A6
:103A900096FFFDCF218390815082918196FFFDCFCB
:103AA000218390814082918196FFFDCF2183908177
:103AB0001082918196FFFDCF21839081209265062F
:103AC000061B170B860E971EA11CB11C01151105B4
:103AD00009F04BCF2496CDBFDEBFDF91CF911F9170
:103AE0000F91FF90EF90DF90CF90BF90AF909F909D
:103AF0008F907F906F905F904F903F902F900895A0
:103B0000CF92DF92EF92FF92CF93DF93EC01C090C0
:103B10002020D12CE12CF12C7601DD24CC24C60E02
:103B2000D71EE11CF11CA0E6B6E030E1E0EAF9E0C6
:103B300067ED20E416963C9316976083918196FF7B
:103B4000FDCF218380811082918196FFFDCF21835B
:103B5000808115963C931597882364F780E18093C4
:103B6000660683E08093A009E0EAF9E0818186FFA0
:103B7000FDCFE0EAF9E080E481838081C701AA27D4
:103B8000BB278083918196FFFDCFE0EAF9E080E4D6
:103B900081838081BB27AF2D9E2D8D2D80839181C8
:103BA00096FFFDCFE0EAF9E080E481838081C08266
:103BB000918196FFFDCFE0EAF9E080E48183808186
:103BC0004115510571F0DE014C0F5D1F80E410823C
:103BD000918196FFFDCF818390819D93A417B507B6
:103BE000B1F780E180936506DF91CF91FF90EF9070
:103BF000DF90CF9008952F923F924F925F926F92F5
:103C00007F928F929F92AF92BF92CF92DF92EF926C
:103C1000FF920F931F93CF93DF9300D000D0CDB7C7
:103C2000DEB77C018A0180902020912CA12CB12C40
:103C3000540199248824860E971EA11CB11C452B83
:103C400009F4C3C0C12CDD24D3946894222424F841
:103C5000822DE0EAF9E037ED20E4332EE982FA82A2
:103C6000492C5A2C6B2C7724482DB6016819710900
:103C70000617170708F4B801809366063082918111
:103C800096FFFDCF218390811082918196FFFDCF19
:103C90002183908180936506992374F720926606AC
:103CA00093E59083918196FFFDCF2183908150828F
:103CB000918196FFFDCF218390814082918196FF73
:103CC000FDCF218390811082918196FFFDCF2183CA
:103CD000908120926506809366063083918196FFDD
:103CE000FDCF218390811082918196FFFDCF2183AA
:103CF000908180936506992374F720926606A4E864
:103D0000A083918196FFFDCF2183908110829181C4
:103D100096FFFDCF218390811082918196FFFDCF88
:103D2000218390814083918196FFFDCF21839081F3
:103D30006115710579F0A981BA81A701460F571F56
:103D40009D919083918196FFFDCF21839081A4174F
:103D5000B507B1F72092650680936606308391819E
:103D600096FFFDCF218390811082918196FFFDCF38
:103D70002183908180936506992374F720926606CB
:103D8000B3E8B083918196FFFDCF2183908150826B
:103D9000918196FFFDCF218390814082918196FF92
:103DA000FDCF218390811082918196FFFDCF2183E9
:103DB000908120926506061B170B860E971EA11C8C
:103DC000B11C0115110509F04BCF2496CDBFDEBF04
:103DD000DF91CF911F910F91FF90EF90DF90CF90E7
:103DE000BF90AF909F908F907F906F905F904F901B
:103DF0003F902F900895CF93DF9360912020862FDE
:103E000090E0A0E0B0E0BA2FA92F982F8827AC014E
:103E1000BC017395A0E6B6E0C0E12C2FE0EAF9E022
:103E200090E437EDD1E816962C9316973083818174
:103E300086FFFDCF918380811082818186FFFDCF37
:103E40009183808115962C931597882364F7169695
:103E5000CC931697D083818186FFFDCF918380819B
:103E60005083818186FFFDCF918380814083818152
:103E700086FFFDCF918380811082818186FFFDCFF7
:103E8000918380811596CC9315974F5F5F4F4617AE
:103E9000570749F6DF91CF910895CF92DF92EF92C5
:103EA000FF920F931F93FC01CB01BA0161157105BD
:103EB00041E084079105A8F4890120E030E0C12C9D
:103EC000D12C7601E394C61AD70AE80AF90A0C1530
:103ED0001D052E053F0510F468017901A601CF01EB
:103EE0008ADE81E01F910F91FF90EF90DF90CF90DD
:103EF0000895CF92DF92EF92FF920F931F93FC01F0
:103F0000CB01BA016115710541E084079105B8F450
:103F1000890120E030E0C12CD12C7601E394C61A4F
:103F2000D70AE80AF90A0C151D052E053F0510F4FD
:103F300068017901A601CF01E3DD81E001C080E0E5
:103F40001F910F91FF90EF90DF90CF90089508950B
:103F50000C94B82808950F931F93CF93DF934FEFDE
:103F6000460F662369F0EC01042F10E00F5F1F4F2E
:103F7000080F191F0E94B8288993C017D107D1F7DD
:103F8000DF91CF911F910F9108950E94B8280E9450
:103F9000B8280E94B8280C94B8280895CF93DF93CE
:103FA000CDB7DEB7A397CDBFDEBF83E1E0E2F0E29D
:103FB000DE01119601900D928A95E1F763E170E0C0
:103FC000CE0101960E94020745E150E060E070E8F2
:103FD000CE0101969EDCA396CDBFDEBFDF91CF91CF
:103FE00008953091202028E0832F90E0019687707B
:103FF0009078992324F40197886F9F6F0196382F4A
:10400000FC01FF27EE0FFF1FEC5DFF4D8081882331
:1040100071F0383070F4E0E2F0E23083832F90E00A
:10402000880F991F8D5D9F4D818392830895215044
:10403000D9F60895883058F4E0E2F0E2808390E009
:10404000880F991F8D5D9F4D81839283D5CA0895F6
:10405000FC018EE480838FE481838EE282838091F1
:104060002020805D838314820895FC0190818181EA
:10407000811107C080ED890F883028F4DBDF81E0F3
:10408000089580E0089580E00895CF93DF93EC01D8
:10409000FC0170968BE0DF011D928A95E9F782E0C2
:1040A0008C83898783E08E8761E0CE010196DCD521
:1040B000882351F061E0CE010696D6D5882321F001
:1040C00061E0CE010B96D0D5DF91CF910895CF93CB
:1040D000DF93FC019091D6239430C1F484899589B3
:1040E000A689B789892B8A2B8B2B91F0EB018181D3
:1040F000B1D4FE0101900020E9F73197BF016C1B9C
:104100007D0B40E050E0CE01FAD203C082E001C056
:1041100082E0DF91CF9108950F931F93CF93DF93A8
:10412000FC019091D623943091F484899589A689D5
:10413000B789892B8A2B8B2B61F08A01EB01818156
:1041400089D440E050E0B801CE01D9D203C082E06A
:1041500001C082E0DF91CF911F910F910895CF931D
:10416000FC019091D6239430F9F484899589A6892D
:10417000B789892B8A2B8B2BC9F0C62F81816AD4F2
:104180008091DF239091E023FC01EF5BFF4F2081C2
:1041900031978081281720F015D40FD6811107C0E0
:1041A0008C2F48D480E003C082E001C082E0CF9130
:1041B0000895CF93DF93FC019091D6239430D1F5ED
:1041C00084899589A689B789892B8A2B8B2BA1F1A4
:1041D000818140D48091E32388234CF4E091DF2354
:1041E000F091E023EF5BFF4F808190E00DC02091C4
:1041F000DF233091E023F901E05CFF4F80813196AD
:10420000208190E0821B9109892BC1F08091DF23EE
:104210009091E023FC01EF5BFF4FD0813197C0818B
:10422000D1D3DC1768F0C9D5C82F81110BC0CAD310
:104230008C2F08C082E006C082E004C080E002C08B
:1042400080E000C0DF91CF910895CF93DF93FC0110
:104250009091D623943081F484899589A689B78971
:10426000892B8A2B8B2B41F0EF018181F3D332D440
:10427000882311F0CE019DDFDF91CF910895CF9378
:10428000DF932091D623243009F052C0FC014489E9
:10429000558966897789452B462B472B09F44BC0F6
:1042A0008681D8D323D4882309F448C08091E3239E
:1042B00088234CF4E091DF23F091E023EF5BFF4F84
:1042C000808190E00DC02091DF233091E023F9013F
:1042D000E05CFF4F80813196208190E0821B910944
:1042E000892B21F097D3C82FD0E002C0CFEFDFEFAA
:1042F0008091E32388234CF4E091DF23F091E023C5
:10430000EF5BFF4F208130E00DC04091DF235091E3
:10431000E023FA01E05CFF4F20813196808130E09C
:10432000281B3109232B69F466D38C2F9D2F0BC0DA
:104330008FEF9FEF08C08FEF9FEF05C08FEF9FEFCC
:1043400002C08C2F9D2FDF91CF9108950895FF9289
:104350000F931F93CF93DF93EC01E1D3882309F4EC
:104360007EC0288130E08091DB239091DC2382178E
:10437000930709F074C08091D823813259F018F462
:10438000803229F16CC0823209F450C0833209F4C2
:104390005CC065C08091D723813A09F060C0D8D352
:1043A00099D38823E9F38C89FD880E891F8942D32C
:1043B0008F2D40D3802F3ED3812F3CD3888D3AD38D
:1043C000898D38D38A8D36D3FDD2E0D448C0809110
:1043D000D723813209F043C0BBD305C08091D623D7
:1043E000882309F43CC082D38823C1F313D3F82E69
:1043F00011D3182F0FD3082F0DD3402F50E060E0BA
:1044000070E0BA0155274427782B4F29512B4C8B4C
:104410005D8B6E8B7F8BFED2888FFCD2898FFAD218
:104420008A8FE9D2B3D4CE0191DF19C08091D7230E
:104430008132A9F48DD3AAD48091D9239091DA2323
:10444000888B998BCE0182DF0AC08091D72381327D
:1044500031F47ED39BD46091D923CE0177DFDF91F5
:10446000CF911F910F91FF900895EF92FF920F93BC
:104470001F93CF93DF93CDB7DEB7EA97CDBFDEBFF3
:1044800007ED13E20F2EFFEDEF2EF3E2FF2EF02DDE
:10449000C1D2F80181938F01EE15FF05C9F70E9483
:1044A000E7143DD3882309F4FEC0E7EDF3E29081E1
:1044B0008181853009F46BC030F4813091F168F06E
:1044C000833079F1F0C0883009F4C5C0893009F42F
:1044D000CBC0863009F0E7C06EC0903821F092382A
:1044E00009F0E1C008C01091D3238091D423882320
:1044F00081F012600EC08091DB238F70ABD2E0910F
:10450000E123F091E223118112FB112710F980E0E1
:10451000A1D21ED3812F8ED280E08CD253D236D43A
:10452000C2C0992309F4C5C0923009F0BCC0C6C00E
:1045300091E0833009F090E09093D42323C0E09180
:10454000DB231E2F1F7009F4AEC0812F83D2809110
:10455000D823833011F428D315C0E091E123F091E2
:10456000E22381818B7F818324E8129FF001112453
:10457000EB5DFB4D1082E091E123F091E22380811D
:104580008E7F808380E066D2E3D200D48CC091110C
:104590008AC01091D9231F77DBD2F8D39BD288230E
:1045A000E9F31093C304111102C082E001C083E05B
:1045B0008093D62378C09058923008F074C08091D0
:1045C000D9239091DA238C3DE3E09E07A1F583E0A7
:1045D0008A838AE389837FB7F894AE014D5F5F4F8A
:1045E00020E038E0A0ECB1E062E01A966C931A97F4
:1045F000E32FF0E084911A961C921A9720FF03C0D3
:1046000082958F703F5F8F708A3018F090E0C79668
:1046100002C090E0C096FA0181939193AF012F5FA1
:104620002C3119F77FBF94D26AE370E0CE01019676
:10463000B6D0E1D138C0AE014F5F5F4F6091DB2350
:104640003CD88C01892B79F183D2B80189819A8178
:104650002ED1D1D128C0903831F57AD28091D22391
:10466000E9D1B0D193D31FC091111DC08091D9233E
:104670008230C8F46DD28091D9238093D22386D31F
:104680008091D223882321F084E08093D62309C02F
:104690008091C304811102C081E001C084E0809355
:1046A000D6230E94E2143BD2882371F051D27CD2EF
:1046B0000BC09091D9239130B1F73ACF8091D92393
:1046C000882309F43CCF5ECFEA96CDBFDEBFDF91F1
:1046D000CF911F910F91FF90EF9008950895CF9380
:1046E0008091D623882349F0C091E32380E0B2D1A2
:1046F00016D28111BADE8C2FADD1CF910895CF9211
:10470000DF92EF92FF920F931F93CF93DF938C0171
:10471000EB016A0152D3811139C0C114D10439F0BF
:10472000F60180819181C81BD90B080F191F2097B2
:1047300061F1E12CF12C2091DF233091E023F9018C
:10474000EF5BFF4F908131978081981790F03AD1BD
:10475000C6DFC114D10449F0F60180819181E80ED1
:10476000F91EE082F18285E011C027D3882349F049
:104770000DC0F80181918F015DD12197FFEFEF1AF4
:10478000FF0A2097C1F680E001C080E0DF91CF9161
:104790001F910F91FF90EF90DF90CF900895CF92EF
:1047A000DF92EF92FF920F931F93CF93DF93C82E68
:1047B000D92E8B018091E32380684CD1C091DD23F9
:1047C000D091DE23C017D10738F00115110519F477
:1047D000F9D0E80101C0E801EC2CFD2CD12C44C03B
:1047E0008091D623882309F450C0853009F44FC046
:1047F00096D181114EC07AD1811142C06BD18823EC
:1048000099F18091E323882374F4E091DF23F09100
:10481000E023EF5BFF4F008110E02097F1F00830BC
:10482000110578F01AC08091DF239091E023FC01FC
:10483000E05CFF4F00813196808110E0081B110978
:10484000ECCFF70181917F01F5D021970F5F1F4FCA
:10485000209719F008301105A1F7DD24D394083012
:10486000110509F0D12CAED0209709F0B9CFD110A5
:10487000B7CF06C08091D623882369F0853069F0D0
:1048800035D18823B9F380E009C082E007C083E016
:1048900005C081E003C082E001C083E0DF91CF91D9
:1048A0001F910F91FF90EF90DF90CF900895DF92CE
:1048B000EF92FF920F931F93CF93DF93E82EF92E81
:1048C0008B018091E3238068C5D0C091DD23D09116
:1048D000DE23C017D10738F00115110519F472D085
:1048E000E80101C0E8010E2D1F2DD12C49C0809197
:1048F000D623882309F455C0853009F454C00FD15C
:10490000811153C0F3D0811147C0E4D08823C1F195
:104910008091E32388237CF4E091DF23F091E0236E
:10492000EF5BFF4FE080F12C209711F188E0E81653
:10493000F10478F01DC08091DF239091E023FC0109
:10494000E05CFF4FE08031968081F12CE81AF1089D
:10495000EBCFF80184916ED00F5F1F4F2197FFEFCF
:10496000EF1AFF0A209721F088E0E816F10489F792
:10497000DD24D394E8E0EE16F10409F0D12C22D026
:10498000209709F0B4CFD110B2CF06C08091D623C2
:10499000882369F0853069F0A9D08823B9F380E0D5
:1049A00009C082E007C083E005C081E003C082E067
:1049B00001C083E0DF91CF911F910F91FF90EF90A5
:1049C000DF900895E091E123F091E223A091DF23AD
:1049D000B091E023AF5BBF4F8C9190E082839383D3
:1049E00080818D798083E091DF23F091E023EF5B7C
:1049F000FF4F10820895E091E123F091E22380813E
:104A00008D798083E091DF23F091E023EF5BFF4F0E
:104A1000108208958091DF239091E023FC01EF5BE9
:104A2000FF4F208131E0320F3083FC01E20FF11D96
:104A3000808108952091DF233091E023F901EF5B1D
:104A4000FF4F908141E0490F4083F901E90FF11DCB
:104A5000808308958093E323282F2F7030E04091C6
:104A6000C6045091C7048823E4F464E8629FC0013F
:104A7000639F900D11248A5D9B4D8093DF2390935B
:104A8000E023C90182959295907F9827807F98278F
:104A900008969A01280F391F2093E1233093E223CF
:104AA000089564E8629FC001639F900D11248C51AA
:104AB0009C4D8093DF239093E02322953295307FA5
:104AC0003227207F3227240F351F2093E123309394
:104AD000E22308958091E3238068BCDFE091E12325
:104AE000F091E22380818695817008958091E3237F
:104AF0008F77B0DFE091E123F091E223808185FFA1
:104B00000CC08091DF239091E02322813381FC014E
:104B1000E05CFF4F208381E0089580E0089580915C
:104B2000E3238F7797DFE091E123F091E223808107
:104B300084FF0CC08091DF239091E0232281338198
:104B4000FC01E05CFF4F208381E0089580E0089540
:104B50008091E3238F777EDFE091E123F091E223E0
:104B600080818D788083E091E123F091E223808140
:104B700081608083E091DF23F091E023EF5BFF4FC2
:104B800010828091E323806865DFE091E123F0915A
:104B9000E223808181608083E091DF23F091E02334
:104BA000EF5BFF4F10820895E091E123F091E22343
:104BB000818184608183E091E123F091E22381810E
:104BC000807C803459F48091E323805843DFE09166
:104BD000E123F091E22381818460818308951F9312
:104BE000CF93DF93D82F162FC42F34DFE091E1232A
:104BF000F091E2231182E091E123F091E223DD23A1
:104C0000A4F01082E091E123F091E2231183E0917E
:104C1000E123F091E223128213828091DF239091AD
:104C2000E0238483958340E014C082E08083E09198
:104C3000E123F091E2231183E091E123F091E2235B
:104C4000128213828091DF239091E02384839583E5
:104C50004C2FFC01E05CFF4F40833196108281E0D5
:104C6000DF91CF911F910895AF92BF92CF92DF92C3
:104C7000EF92FF920F931F93CF93DF93662309F474
:104C800055C0A62E7C018C0184E0E80EF11CB12CED
:104C9000F801C080CC2009F43FC0C181D281F70166
:104CA00031978081F7019081923010F448E001C083
:104CB00048E1C930D10550F028E030E090E09F5F36
:104CC000220F331F2C173D07D0F301C090E0942B27
:104CD0002C2D2F7030E02630310554F59F7EC134E5
:104CE000D10540F5882319F0813021F006C0906489
:104CF000D92E07C0906CD92E09C09068D92E811189
:104D000005C04C2F6D2D80E88C0D69DF4C2F6D2D6B
:104D10008C2D65DF882379F0B3940B5F1F4FF5E08E
:104D2000EF0EF11CBA10B4CF81E005C081E003C0E2
:104D300080E001C080E0DF91CF911F910F91FF9043
:104D4000EF90DF90CF90BF90AF90089520E030E0DB
:104D5000A0ECB4E01696ED91FC911797C9018295ED
:104D60009295907F9827807F9827E80FF91F1186EA
:104D700016964D915C911797FA01E80FF91F118271
:104D80002F5F3F4F2630310529F708958091D723B3
:104D9000882374F404C08091D623882369F0A6DEAA
:104DA0008823C9F328CE08958091D623882321F043
:104DB00091DE8823C9F306CE0895FF920F931F93C7
:104DC000CF93DF93E091C604F091C704E05AFF4F00
:104DD000C081D1810F2EF4E6FF2EF02D00EC14E0FF
:104DE00002C0F22EEC018091E323882324F472DECA
:104DF000882321F022C07ADE811121C08091D62340
:104E00008823F9F08530F9F0E091E123F091E22375
:104E1000818182FD1AC0D8011696ED91FC911797F9
:104E2000E05AFF4F80819181C817D907D9F22FEF3F
:104E30002F0DF110D6CF84E009C080E007C080E0DC
:104E400005C082E003C083E001C081E0DF91CF9123
:104E50001F910F91FF90089564D06AD0E0ECF4E0C8
:104E600081818E7F818380818F7780831092D5238B
:104E70000895CF93DF93E0E4F0E0148284818160B1
:104E800084834FD055D0C0ECD4E088818F7788835D
:104E90008881806888831092D6231092D223109242
:104EA000D4231092D32388818064888348E068E407
:104EB00080E895DE48E068E480E091DE88858064E3
:104EC0008887898181608983DF91CF910895CF930D
:104ED000DF933FB7F894C0ECD1E022E02A87EAE103
:104EE000F0E0E491A0ECB4E0DA96EC93DA97EBE131
:104EF000F0E0E491DB96EC93DB971A868DEF96E277
:104F00008E7F16968D939C93179785E18C931896B8
:104F10002C933FBF81E08093D523ABDFDF91CF910E
:104F20000895E0ECF4E08085837080871186089511
:104F3000E0ECF4E08FEF8287848708951F920F9250
:104F40000FB60F9211242F933F934F935F936F935C
:104F50007F938F939F93AF93BF93EF93FF93809132
:104F6000CA04882344F48091C804882324F480E888
:104F70008093CA04B3DB8091CA0486FF07C080E433
:104F80008093CA041092D6230E94E1148091CA042F
:104F900085FF16C080E28093CA048091D2238823C3
:104FA00021F084E08093D62309C08091C30481114D
:104FB00002C081E001C083E08093D6230E94E01408
:104FC0008091CA0484FF14C0E0ECF4E080E18287A1
:104FD00082E08093D6231092D2231382B7DE48E07A
:104FE00068E480E8FCDD48E068E480E0F8DD76DB3A
:104FF000FF91EF91BF91AF919F918F917F916F91B1
:105000005F914F913F912F910F900FBE0F901F9086
:105010001895AA1BBB1B51E107C0AA1FBB1FA617EF
:10502000B70710F0A61BB70B881F991F5A95A9F751
:1050300080959095BC01CD01089597FB072E16F43D
:10504000009406D077FD08D0E4DF07FC05D03EF4DD
:10505000909581959F4F0895709561957F4F089524
:10506000A1E21A2EAA1BBB1BFD010DC0AA1FBB1F6C
:10507000EE1FFF1FA217B307E407F50720F0A21BDE
:10508000B30BE40BF50B661F771F881F991F1A944B
:1050900069F760957095809590959B01AC01BD0175
:1050A000CF010895A29FB001B39FC001A39F700DCF
:1050B000811D1124911DB29F700D811D1124911D20
:1050C0000895F0DFA59F900DB49F900DA49F800DD3
:1050D000911D11240895B7FFF4CFF3DF821B930BCA
:1050E00008958F929F92AF92BF92CF92DF92EF92EC
:1050F000FF92CF93DF93EC01688179818A819B8154
:10510000611571058105910521F464E279ED8BE566
:1051100097E02DE133EF41E050E038D349015A01E7
:105120009B01AC01A7EAB1E4CCDF6B017C01ACEEE2
:10513000B4EFA5019401D1DFDC01CB018C0D9D1DE5
:10514000AE1DBF1DB7FF03C00197A109B0488883FA
:105150009983AA83BB839F77DF91CF91FF90EF90D4
:10516000DF90CF90BF90AF909F908F900895B9CF70
:1051700080E090E2B6CFA0E0B0E080930020909372
:105180000120A0930220B09303200895FB01DC01CD
:1051900002C005900D9241505040D8F70895FB0190
:1051A000DC018D91059080190110D9F3990B0895B8
:1051B000FB01DC014150504048F005900D92002069
:1051C000C9F701C01D9241505040E0F70895FB011E
:1051D000DC0102C001900D9241505040D8F7089573
:1051E000DC0101C06D9341505040E0F70895AEE0FE
:1051F000B0E0ECEFF8E2F4C20D891E898F89988D3A
:105200002EE02C8309831A8397FF02C080E090E888
:1052100001978D839E83AE01455E5F4F698D7A8DC8
:10522000CE01019611D04D815E8157FD0AC02F81BC
:105230003885421753070CF49A01F801E20FF31F67
:1052400010822E96E4E0E5C2ACE0B0E0E9E2F9E2DB
:10525000B9C27C016B018A01FC011682178283812D
:1052600081FFB0C1CE0101964C01F7019381F60197
:1052700093FD859193FF81916F01882309F49EC16D
:10528000853239F493FD859193FF81916F018532C9
:1052900021F4B70190E0B1D1E8CF512C312C20E0BE
:1052A0002032A0F48B3269F030F4803259F083322E
:1052B00069F420612CC08D3239F0803339F42160DB
:1052C00026C02260246023C0286021C027FD27C09B
:1052D00030ED380F3A3078F426FF06C0FAE05F9ED2
:1052E000300D1124532E13C08AE0389E300D112446
:1052F000332E20620CC08E3221F426FD5FC1206463
:1053000006C08C3611F4206802C0883641F4F601DC
:1053100093FD859193FF81916F018111C1CF982FEA
:105320009F7D9554933028F40C5F1F4FFFE3F98362
:105330000DC0833631F0833771F0833509F057C0E3
:1053400021C0F801808189830E5F1F4F442443945C
:10535000512C540114C03801F2E06F0E711CF80199
:10536000A080B18026FF03C0652D70E002C06FEF02
:105370007FEFC5012C8736D12C0183012C852F7737
:10538000222E16C03801F2E06F0E711CF801A080C9
:10539000B18026FF03C0652D70E002C06FEF7FEF84
:1053A000C5012C8714D12C012C852068222E830165
:1053B00023FC19C0832D90E048165906A0F4B701CC
:1053C00080E290E01AD13A94F5CFF50127FC85915F
:1053D00027FE81915F01B70190E00FD131103A941F
:1053E000F1E04F1A51084114510479F7DEC08436B8
:1053F00011F0893631F5F80127FF07C0608171810E
:10540000828193810C5F1F4F08C060817181072EDC
:10541000000C880B990B0E5F1F4F2F76722E97FF93
:1054200009C090958095709561957F4F8F4F9F4FE4
:105430002068722E2AE030E0A40117D1A82EA81807
:1054400043C0853729F42F7EB22E2AE030E025C0F4
:10545000F22FF97FBF2E8F36C1F018F4883579F01E
:10546000ADC0803719F0883721F0A8C02F2F2061F8
:10547000B22EB4FE0DC08B2D8460B82E09C024FF5F
:105480000AC09F2F9660B92E06C028E030E005C004
:1054900020E130E002C020E132E0F801B7FE07C0B1
:1054A00060817181828193810C5F1F4F06C0608192
:1054B000718180E090E00E5F1F4FA401D6D0A82E2E
:1054C000A818FB2DFF777F2E76FE0BC0372D3E7F71
:1054D000A51450F474FE0AC072FC08C0372D3E7E3D
:1054E00005C0BA2C372D03C0BA2C01C0B52C34FF2F
:1054F0000DC0FE01EA0DF11D8081803311F4397E6B
:1055000009C032FF06C0B394B39404C0832F8678D9
:1055100009F0B39433FD12C030FF06C05A2CB31407
:1055200018F4530C5B18B32CB31460F4B70180E289
:1055300090E03C8762D0B3943C85F6CFB31410F46E
:105540003B1801C0312C34FF11C0B70180E390E05B
:105550003C8753D03C8532FF16C031FD03C088E73D
:1055600090E002C088E590E0B7010CC0832F8678F8
:1055700051F031FF02C08BE201C080E237FD8DE2C5
:10558000B70190E03AD0A51430F4B70180E390E081
:1055900034D05A94F8CFAA94F401EA0DF11D808119
:1055A000B70190E02AD0A110F6CF332009F45DCEE8
:1055B000B70180E290E021D03A94F7CFF7018681DD
:1055C000978102C08FEF9FEF2C96E2E114C1FC019E
:1055D0000590615070400110D8F7809590958E0F1E
:1055E0009F1F0895FC016150704001900110D8F791
:1055F000809590958E0F9F1F08950F931F93CF93C3
:10560000DF93FB01238121FD03C08FEF9FEF28C0B3
:1056100022FF16C0468157812481358142175307E6
:1056200044F4A081B1819D012F5F3F4F20833183DE
:105630008C93268137812F5F3F4F2683378310C09D
:10564000EB01092F182F0084F185E02D0995892B96
:10565000E1F68E819F8101968E839F83812F902F0B
:10566000DF91CF911F910F910895FA01AA27283059
:1056700051F1203181F1E8946F936E7F6E5F7F4F1F
:105680008F4F9F4FAF4FB1E03ED0B4E03CD0670F9B
:10569000781F891F9A1FA11D680F791F8A1F911DEE
:1056A000A11D6A0F711D811D911DA11D20D009F43E
:1056B00068943F912AE0269F11243019305D319380
:1056C000DEF6CF010895462F4770405D4193B3E069
:1056D0000FD0C9F7F6CF462F4F70405D4A3318F010
:1056E000495D31FD4052419302D0A9F7EACFB4E0C1
:1056F000A6959795879577956795BA95C9F7009779
:105700006105710508959B01AC010A2E0694579519
:10571000479537952795BA95C9F7620F731F841F70
:10572000951FA01D089503D0808199270895E0EC6E
:10573000F1E0378537FDFDCF348538603487FC01D3
:10574000E050F04F0895262FE0ECF1E0378537FD6B
:10575000FDCF3485377F3487378531FF09C036E385
:10576000328738ED34BF31E03387378537FDFDCFE1
:1057700033E33287808391831282248325E3228757
:1057800028ED31E024BF338701960895052E97FB5D
:1057900016F400940FD057FD05D062DC07FC02D050
:1057A00046F408C050954095309521953F4F4F4F96
:1057B0005F4F089590958095709561957F4F8F4FBD
:1057C0009F4F08952F923F924F925F926F927F92D8
:1057D0008F929F92AF92BF92CF92DF92EF92FF9201
:1057E0000F931F93CF93DF93CDB7DEB7CA1BDB0BAD
:1057F000CDBFDEBF09942A88398848885F846E84CB
:105800007D848C849B84AA84B984C884DF80EE80E4
:10581000FD800C811B81AA81B981CE0FD11DCDBF26
:0A582000DEBFED010895F894FFCFFC
:10582A0001000000140083100000010410000001B0
:10583A0082080000010000000000000000000000D3
:10584A0000232006000600060006000600060006E1
:10585A0000060000232006000600060006000600D7
:10586A00060006000600000100010000000000001A
:10587A000001000101010101010001000100000015
:10588A000101000101010001010100000001000005
:10589A0001000101000100000002020000020002F2
:1058AA0002020200000200000004040000040004D6
:1058BA0004040400000400080808000000080000AE
:1058CA00080008080008000000101000001000106E
:0858DA00101010000010000086
:00000001FF
